{
  "contractName": "Vesting",
  "abi": [
    {
      "inputs": [],
      "stateMutability": "nonpayable",
      "type": "constructor"
    },
    {
      "anonymous": false,
      "inputs": [
        {
          "indexed": true,
          "internalType": "address",
          "name": "owner",
          "type": "address"
        },
        {
          "indexed": true,
          "internalType": "address",
          "name": "spender",
          "type": "address"
        },
        {
          "indexed": false,
          "internalType": "uint256",
          "name": "value",
          "type": "uint256"
        }
      ],
      "name": "Approval",
      "type": "event"
    },
    {
      "anonymous": false,
      "inputs": [
        {
          "indexed": true,
          "internalType": "address",
          "name": "previousOwner",
          "type": "address"
        },
        {
          "indexed": true,
          "internalType": "address",
          "name": "newOwner",
          "type": "address"
        }
      ],
      "name": "OwnershipTransferred",
      "type": "event"
    },
    {
      "anonymous": false,
      "inputs": [
        {
          "indexed": true,
          "internalType": "address",
          "name": "from",
          "type": "address"
        },
        {
          "indexed": true,
          "internalType": "address",
          "name": "to",
          "type": "address"
        },
        {
          "indexed": false,
          "internalType": "uint256",
          "name": "value",
          "type": "uint256"
        }
      ],
      "name": "Transfer",
      "type": "event"
    },
    {
      "inputs": [
        {
          "internalType": "address",
          "name": "owner",
          "type": "address"
        },
        {
          "internalType": "address",
          "name": "spender",
          "type": "address"
        }
      ],
      "name": "allowance",
      "outputs": [
        {
          "internalType": "uint256",
          "name": "",
          "type": "uint256"
        }
      ],
      "stateMutability": "view",
      "type": "function",
      "constant": true
    },
    {
      "inputs": [
        {
          "internalType": "address",
          "name": "spender",
          "type": "address"
        },
        {
          "internalType": "uint256",
          "name": "amount",
          "type": "uint256"
        }
      ],
      "name": "approve",
      "outputs": [
        {
          "internalType": "bool",
          "name": "",
          "type": "bool"
        }
      ],
      "stateMutability": "nonpayable",
      "type": "function"
    },
    {
      "inputs": [
        {
          "internalType": "address",
          "name": "account",
          "type": "address"
        }
      ],
      "name": "balanceOf",
      "outputs": [
        {
          "internalType": "uint256",
          "name": "",
          "type": "uint256"
        }
      ],
      "stateMutability": "view",
      "type": "function",
      "constant": true
    },
    {
      "inputs": [
        {
          "internalType": "uint256",
          "name": "",
          "type": "uint256"
        }
      ],
      "name": "beneficiaries",
      "outputs": [
        {
          "internalType": "address",
          "name": "",
          "type": "address"
        }
      ],
      "stateMutability": "view",
      "type": "function",
      "constant": true
    },
    {
      "inputs": [],
      "name": "decimals",
      "outputs": [
        {
          "internalType": "uint8",
          "name": "",
          "type": "uint8"
        }
      ],
      "stateMutability": "view",
      "type": "function",
      "constant": true
    },
    {
      "inputs": [
        {
          "internalType": "address",
          "name": "spender",
          "type": "address"
        },
        {
          "internalType": "uint256",
          "name": "subtractedValue",
          "type": "uint256"
        }
      ],
      "name": "decreaseAllowance",
      "outputs": [
        {
          "internalType": "bool",
          "name": "",
          "type": "bool"
        }
      ],
      "stateMutability": "nonpayable",
      "type": "function"
    },
    {
      "inputs": [
        {
          "internalType": "address",
          "name": "spender",
          "type": "address"
        },
        {
          "internalType": "uint256",
          "name": "addedValue",
          "type": "uint256"
        }
      ],
      "name": "increaseAllowance",
      "outputs": [
        {
          "internalType": "bool",
          "name": "",
          "type": "bool"
        }
      ],
      "stateMutability": "nonpayable",
      "type": "function"
    },
    {
      "inputs": [],
      "name": "name",
      "outputs": [
        {
          "internalType": "string",
          "name": "",
          "type": "string"
        }
      ],
      "stateMutability": "view",
      "type": "function",
      "constant": true
    },
    {
      "inputs": [],
      "name": "owner",
      "outputs": [
        {
          "internalType": "address",
          "name": "",
          "type": "address"
        }
      ],
      "stateMutability": "view",
      "type": "function",
      "constant": true
    },
    {
      "inputs": [],
      "name": "renounceOwnership",
      "outputs": [],
      "stateMutability": "nonpayable",
      "type": "function"
    },
    {
      "inputs": [],
      "name": "symbol",
      "outputs": [
        {
          "internalType": "string",
          "name": "",
          "type": "string"
        }
      ],
      "stateMutability": "view",
      "type": "function",
      "constant": true
    },
    {
      "inputs": [],
      "name": "token",
      "outputs": [
        {
          "internalType": "contract XYZToken",
          "name": "",
          "type": "address"
        }
      ],
      "stateMutability": "view",
      "type": "function",
      "constant": true
    },
    {
      "inputs": [],
      "name": "totalSupply",
      "outputs": [
        {
          "internalType": "uint256",
          "name": "",
          "type": "uint256"
        }
      ],
      "stateMutability": "view",
      "type": "function",
      "constant": true
    },
    {
      "inputs": [
        {
          "internalType": "address",
          "name": "recipient",
          "type": "address"
        },
        {
          "internalType": "uint256",
          "name": "amount",
          "type": "uint256"
        }
      ],
      "name": "transfer",
      "outputs": [
        {
          "internalType": "bool",
          "name": "",
          "type": "bool"
        }
      ],
      "stateMutability": "nonpayable",
      "type": "function"
    },
    {
      "inputs": [
        {
          "internalType": "address",
          "name": "sender",
          "type": "address"
        },
        {
          "internalType": "address",
          "name": "recipient",
          "type": "address"
        },
        {
          "internalType": "uint256",
          "name": "amount",
          "type": "uint256"
        }
      ],
      "name": "transferFrom",
      "outputs": [
        {
          "internalType": "bool",
          "name": "",
          "type": "bool"
        }
      ],
      "stateMutability": "nonpayable",
      "type": "function"
    },
    {
      "inputs": [
        {
          "internalType": "address",
          "name": "newOwner",
          "type": "address"
        }
      ],
      "name": "transferOwnership",
      "outputs": [],
      "stateMutability": "nonpayable",
      "type": "function"
    },
    {
      "inputs": [
        {
          "internalType": "address",
          "name": "_beneficiary",
          "type": "address"
        }
      ],
      "name": "addBeneficiaries",
      "outputs": [],
      "stateMutability": "nonpayable",
      "type": "function"
    },
    {
      "inputs": [],
      "name": "tokenVesting",
      "outputs": [],
      "stateMutability": "nonpayable",
      "type": "function"
    },
    {
      "inputs": [
        {
          "internalType": "address",
          "name": "_beneficiary",
          "type": "address"
        },
        {
          "internalType": "uint256",
          "name": "amount",
          "type": "uint256"
        }
      ],
      "name": "release",
      "outputs": [],
      "stateMutability": "payable",
      "type": "function",
      "payable": true
    }
  ],
  "bytecode": "0x60806040523480156200001157600080fd5b506040518060400160405280600881526020017f58595a546f6b656e0000000000000000000000000000000000000000000000008152506040518060400160405280600381526020017f58595a00000000000000000000000000000000000000000000000000000000008152506200009e620000926200018860201b60201c565b6200019060201b60201c565b8160049080519060200190620000b6929190620003eb565b508060059080519060200190620000cf929190620003eb565b5050506200011233620000e76200025460201b60201c565b600a620000f5919062000635565b6305f5e10062000106919062000686565b6200025d60201b60201c565b62080520600c81905550600c546200012f620003d760201b60201c565b6200013b919062000716565b600d81905550600a600d5462000152919062000716565b600e81905550426008819055506301e133806008546200017391906200074e565b600981905550600854600a81905550620008c1565b600033905090565b60008060009054906101000a900473ffffffffffffffffffffffffffffffffffffffff169050816000806101000a81548173ffffffffffffffffffffffffffffffffffffffff021916908373ffffffffffffffffffffffffffffffffffffffff1602179055508173ffffffffffffffffffffffffffffffffffffffff168173ffffffffffffffffffffffffffffffffffffffff167f8be0079c531659141344cd1fd0a4f28419497f9722a3daafe3b4186f6b6457e060405160405180910390a35050565b60006012905090565b600073ffffffffffffffffffffffffffffffffffffffff168273ffffffffffffffffffffffffffffffffffffffff161415620002d0576040517f08c379a0000000000000000000000000000000000000000000000000000000008152600401620002c7906200080c565b60405180910390fd5b620002e460008383620003e160201b60201c565b8060036000828254620002f891906200074e565b9250508190555080600160008473ffffffffffffffffffffffffffffffffffffffff1673ffffffffffffffffffffffffffffffffffffffff16815260200190815260200160002060008282546200035091906200074e565b925050819055508173ffffffffffffffffffffffffffffffffffffffff16600073ffffffffffffffffffffffffffffffffffffffff167fddf252ad1be2c89b69c2b068fc378daa952ba7f163c4a11628f55a4df523b3ef83604051620003b791906200083f565b60405180910390a3620003d360008383620003e660201b60201c565b5050565b6000600354905090565b505050565b505050565b828054620003f9906200088b565b90600052602060002090601f0160209004810192826200041d576000855562000469565b82601f106200043857805160ff191683800117855562000469565b8280016001018555821562000469579182015b82811115620004685782518255916020019190600101906200044b565b5b5090506200047891906200047c565b5090565b5b80821115620004975760008160009055506001016200047d565b5090565b7f4e487b7100000000000000000000000000000000000000000000000000000000600052601160045260246000fd5b60008160011c9050919050565b6000808291508390505b600185111562000529578086048111156200050157620005006200049b565b5b6001851615620005115780820291505b80810290506200052185620004ca565b9450620004e1565b94509492505050565b60008262000544576001905062000617565b8162000554576000905062000617565b81600181146200056d57600281146200057857620005ae565b600191505062000617565b60ff8411156200058d576200058c6200049b565b5b8360020a915084821115620005a757620005a66200049b565b5b5062000617565b5060208310610133831016604e8410600b8410161715620005e85782820a905083811115620005e257620005e16200049b565b5b62000617565b620005f78484846001620004d7565b925090508184048111156200061157620006106200049b565b5b81810290505b9392505050565b6000819050919050565b600060ff82169050919050565b600062000642826200061e565b91506200064f8362000628565b92506200067e7fffffffffffffffffffffffffffffffffffffffffffffffffffffffffffffffff848462000532565b905092915050565b600062000693826200061e565b9150620006a0836200061e565b9250817fffffffffffffffffffffffffffffffffffffffffffffffffffffffffffffffff0483118215151615620006dc57620006db6200049b565b5b828202905092915050565b7f4e487b7100000000000000000000000000000000000000000000000000000000600052601260045260246000fd5b600062000723826200061e565b915062000730836200061e565b925082620007435762000742620006e7565b5b828204905092915050565b60006200075b826200061e565b915062000768836200061e565b9250827fffffffffffffffffffffffffffffffffffffffffffffffffffffffffffffffff03821115620007a0576200079f6200049b565b5b828201905092915050565b600082825260208201905092915050565b7f45524332303a206d696e7420746f20746865207a65726f206164647265737300600082015250565b6000620007f4601f83620007ab565b91506200080182620007bc565b602082019050919050565b600060208201905081810360008301526200082781620007e5565b9050919050565b62000839816200061e565b82525050565b60006020820190506200085660008301846200082e565b92915050565b7f4e487b7100000000000000000000000000000000000000000000000000000000600052602260045260246000fd5b60006002820490506001821680620008a457607f821691505b60208210811415620008bb57620008ba6200085c565b5b50919050565b61218980620008d16000396000f3fe6080604052600436106101145760003560e01c8063715018a6116100a0578063a9059cbb11610064578063a9059cbb14610394578063dd62ed3e146103d1578063efeb5e581461040e578063f2fde38b1461044b578063fc0c546a1461047457610114565b8063715018a6146102c15780638da5cb5b146102d85780639252d73b1461030357806395d89b411461032c578063a457c2d71461035757610114565b806318160ddd116100e757806318160ddd146101b457806323b872dd146101df578063313ce5671461021c578063395093511461024757806370a082311461028457610114565b80630357371d1461011957806306fdde0314610135578063095ea7b3146101605780630a1a8d3c1461019d575b600080fd5b610133600480360381019061012e9190611532565b61049f565b005b34801561014157600080fd5b5061014a6104b5565b604051610157919061160b565b60405180910390f35b34801561016c57600080fd5b5061018760048036038101906101829190611532565b610547565b6040516101949190611648565b60405180910390f35b3480156101a957600080fd5b506101b2610565565b005b3480156101c057600080fd5b506101c96106b9565b6040516101d69190611672565b60405180910390f35b3480156101eb57600080fd5b506102066004803603810190610201919061168d565b6106c3565b6040516102139190611648565b60405180910390f35b34801561022857600080fd5b506102316107bb565b60405161023e91906116fc565b60405180910390f35b34801561025357600080fd5b5061026e60048036038101906102699190611532565b6107c4565b60405161027b9190611648565b60405180910390f35b34801561029057600080fd5b506102ab60048036038101906102a69190611717565b610870565b6040516102b89190611672565b60405180910390f35b3480156102cd57600080fd5b506102d66108b9565b005b3480156102e457600080fd5b506102ed610941565b6040516102fa9190611753565b60405180910390f35b34801561030f57600080fd5b5061032a60048036038101906103259190611717565b61096a565b005b34801561033857600080fd5b50610341610bb3565b60405161034e919061160b565b60405180910390f35b34801561036357600080fd5b5061037e60048036038101906103799190611532565b610c45565b60405161038b9190611648565b60405180910390f35b3480156103a057600080fd5b506103bb60048036038101906103b69190611532565b610d30565b6040516103c89190611648565b60405180910390f35b3480156103dd57600080fd5b506103f860048036038101906103f3919061176e565b610d4e565b6040516104059190611672565b60405180910390f35b34801561041a57600080fd5b50610435600480360381019061043091906117ae565b610dd5565b6040516104429190611753565b60405180910390f35b34801561045757600080fd5b50610472600480360381019061046d9190611717565b610e14565b005b34801561048057600080fd5b50610489610f0c565b604051610496919061183a565b60405180910390f35b6104a98282610d30565b5042600a819055505050565b6060600480546104c490611884565b80601f01602080910402602001604051908101604052809291908181526020018280546104f090611884565b801561053d5780601f106105125761010080835404028352916020019161053d565b820191906000526020600020905b81548152906001019060200180831161052057829003601f168201915b5050505050905090565b600061055b610554610f32565b8484610f3a565b6001905092915050565b6000806000600954600a541061057a57600080fd5b6009544211156105a25761059b600a5460095461110590919063ffffffff16565b92506105ba565b6105b7600a544261110590919063ffffffff16565b92505b603c8310156105fe576040517f08c379a00000000000000000000000000000000000000000000000000000000081526004016105f590611928565b60405180910390fd5b610612603c8461111b90919063ffffffff16565b9150610629600e548361113190919063ffffffff16565b90506009544211158061063f5750600954600a54105b61064857600080fd5b60005b6006805490508110156106b3576106a06006828154811061066f5761066e611948565b5b9060005260206000200160009054906101000a900473ffffffffffffffffffffffffffffffffffffffff168361049f565b80806106ab906119a6565b91505061064b565b50505050565b6000600354905090565b60006106d0848484611147565b6000600260008673ffffffffffffffffffffffffffffffffffffffff1673ffffffffffffffffffffffffffffffffffffffff168152602001908152602001600020600061071b610f32565b73ffffffffffffffffffffffffffffffffffffffff1673ffffffffffffffffffffffffffffffffffffffff1681526020019081526020016000205490508281101561079b576040517f08c379a000000000000000000000000000000000000000000000000000000000815260040161079290611a61565b60405180910390fd5b6107af856107a7610f32565b858403610f3a565b60019150509392505050565b60006012905090565b60006108666107d1610f32565b8484600260006107df610f32565b73ffffffffffffffffffffffffffffffffffffffff1673ffffffffffffffffffffffffffffffffffffffff16815260200190815260200160002060008873ffffffffffffffffffffffffffffffffffffffff1673ffffffffffffffffffffffffffffffffffffffff168152602001908152602001600020546108619190611a81565b610f3a565b6001905092915050565b6000600160008373ffffffffffffffffffffffffffffffffffffffff1673ffffffffffffffffffffffffffffffffffffffff168152602001908152602001600020549050919050565b6108c1610f32565b73ffffffffffffffffffffffffffffffffffffffff166108df610941565b73ffffffffffffffffffffffffffffffffffffffff1614610935576040517f08c379a000000000000000000000000000000000000000000000000000000000815260040161092c90611b23565b60405180910390fd5b61093f60006113cb565b565b60008060009054906101000a900473ffffffffffffffffffffffffffffffffffffffff16905090565b610972610f32565b73ffffffffffffffffffffffffffffffffffffffff16610990610941565b73ffffffffffffffffffffffffffffffffffffffff16146109e6576040517f08c379a00000000000000000000000000000000000000000000000000000000081526004016109dd90611b23565b60405180910390fd5b600073ffffffffffffffffffffffffffffffffffffffff168173ffffffffffffffffffffffffffffffffffffffff161415610a56576040517f08c379a0000000000000000000000000000000000000000000000000000000008152600401610a4d90611bb5565b60405180910390fd5b600a60068054905010610a9e576040517f08c379a0000000000000000000000000000000000000000000000000000000008152600401610a9590611c47565b60405180910390fd5b600760008273ffffffffffffffffffffffffffffffffffffffff1673ffffffffffffffffffffffffffffffffffffffff16815260200190815260200160002060009054906101000a900460ff1615610af557600080fd5b6006819080600181540180825580915050600190039060005260206000200160009091909190916101000a81548173ffffffffffffffffffffffffffffffffffffffff021916908373ffffffffffffffffffffffffffffffffffffffff1602179055506001600760008373ffffffffffffffffffffffffffffffffffffffff1673ffffffffffffffffffffffffffffffffffffffff16815260200190815260200160002060006101000a81548160ff02191690831515021790555050565b606060058054610bc290611884565b80601f0160208091040260200160405190810160405280929190818152602001828054610bee90611884565b8015610c3b5780601f10610c1057610100808354040283529160200191610c3b565b820191906000526020600020905b815481529060010190602001808311610c1e57829003601f168201915b5050505050905090565b60008060026000610c54610f32565b73ffffffffffffffffffffffffffffffffffffffff1673ffffffffffffffffffffffffffffffffffffffff16815260200190815260200160002060008573ffffffffffffffffffffffffffffffffffffffff1673ffffffffffffffffffffffffffffffffffffffff16815260200190815260200160002054905082811015610d11576040517f08c379a0000000000000000000000000000000000000000000000000000000008152600401610d0890611cd9565b60405180910390fd5b610d25610d1c610f32565b85858403610f3a565b600191505092915050565b6000610d44610d3d610f32565b8484611147565b6001905092915050565b6000600260008473ffffffffffffffffffffffffffffffffffffffff1673ffffffffffffffffffffffffffffffffffffffff16815260200190815260200160002060008373ffffffffffffffffffffffffffffffffffffffff1673ffffffffffffffffffffffffffffffffffffffff16815260200190815260200160002054905092915050565b60068181548110610de557600080fd5b906000526020600020016000915054906101000a900473ffffffffffffffffffffffffffffffffffffffff1681565b610e1c610f32565b73ffffffffffffffffffffffffffffffffffffffff16610e3a610941565b73ffffffffffffffffffffffffffffffffffffffff1614610e90576040517f08c379a0000000000000000000000000000000000000000000000000000000008152600401610e8790611b23565b60405180910390fd5b600073ffffffffffffffffffffffffffffffffffffffff168173ffffffffffffffffffffffffffffffffffffffff161415610f00576040517f08c379a0000000000000000000000000000000000000000000000000000000008152600401610ef790611d6b565b60405180910390fd5b610f09816113cb565b50565b600b60009054906101000a900473ffffffffffffffffffffffffffffffffffffffff1681565b600033905090565b600073ffffffffffffffffffffffffffffffffffffffff168373ffffffffffffffffffffffffffffffffffffffff161415610faa576040517f08c379a0000000000000000000000000000000000000000000000000000000008152600401610fa190611dfd565b60405180910390fd5b600073ffffffffffffffffffffffffffffffffffffffff168273ffffffffffffffffffffffffffffffffffffffff16141561101a576040517f08c379a000000000000000000000000000000000000000000000000000000000815260040161101190611e8f565b60405180910390fd5b80600260008573ffffffffffffffffffffffffffffffffffffffff1673ffffffffffffffffffffffffffffffffffffffff16815260200190815260200160002060008473ffffffffffffffffffffffffffffffffffffffff1673ffffffffffffffffffffffffffffffffffffffff168152602001908152602001600020819055508173ffffffffffffffffffffffffffffffffffffffff168373ffffffffffffffffffffffffffffffffffffffff167f8c5be1e5ebec7d5bd14f71427d1e84f3dd0314c0f7b2291e5b200ac8c7c3b925836040516110f89190611672565b60405180910390a3505050565b600081836111139190611eaf565b905092915050565b600081836111299190611f12565b905092915050565b6000818361113f9190611f43565b905092915050565b600073ffffffffffffffffffffffffffffffffffffffff168373ffffffffffffffffffffffffffffffffffffffff1614156111b7576040517f08c379a00000000000000000000000000000000000000000000000000000000081526004016111ae9061200f565b60405180910390fd5b600073ffffffffffffffffffffffffffffffffffffffff168273ffffffffffffffffffffffffffffffffffffffff161415611227576040517f08c379a000000000000000000000000000000000000000000000000000000000815260040161121e906120a1565b60405180910390fd5b61123283838361148f565b6000600160008573ffffffffffffffffffffffffffffffffffffffff1673ffffffffffffffffffffffffffffffffffffffff168152602001908152602001600020549050818110156112b9576040517f08c379a00000000000000000000000000000000000000000000000000000000081526004016112b090612133565b60405180910390fd5b818103600160008673ffffffffffffffffffffffffffffffffffffffff1673ffffffffffffffffffffffffffffffffffffffff1681526020019081526020016000208190555081600160008573ffffffffffffffffffffffffffffffffffffffff1673ffffffffffffffffffffffffffffffffffffffff168152602001908152602001600020600082825461134e9190611a81565b925050819055508273ffffffffffffffffffffffffffffffffffffffff168473ffffffffffffffffffffffffffffffffffffffff167fddf252ad1be2c89b69c2b068fc378daa952ba7f163c4a11628f55a4df523b3ef846040516113b29190611672565b60405180910390a36113c5848484611494565b50505050565b60008060009054906101000a900473ffffffffffffffffffffffffffffffffffffffff169050816000806101000a81548173ffffffffffffffffffffffffffffffffffffffff021916908373ffffffffffffffffffffffffffffffffffffffff1602179055508173ffffffffffffffffffffffffffffffffffffffff168173ffffffffffffffffffffffffffffffffffffffff167f8be0079c531659141344cd1fd0a4f28419497f9722a3daafe3b4186f6b6457e060405160405180910390a35050565b505050565b505050565b600080fd5b600073ffffffffffffffffffffffffffffffffffffffff82169050919050565b60006114c98261149e565b9050919050565b6114d9816114be565b81146114e457600080fd5b50565b6000813590506114f6816114d0565b92915050565b6000819050919050565b61150f816114fc565b811461151a57600080fd5b50565b60008135905061152c81611506565b92915050565b6000806040838503121561154957611548611499565b5b6000611557858286016114e7565b92505060206115688582860161151d565b9150509250929050565b600081519050919050565b600082825260208201905092915050565b60005b838110156115ac578082015181840152602081019050611591565b838111156115bb576000848401525b50505050565b6000601f19601f8301169050919050565b60006115dd82611572565b6115e7818561157d565b93506115f781856020860161158e565b611600816115c1565b840191505092915050565b6000602082019050818103600083015261162581846115d2565b905092915050565b60008115159050919050565b6116428161162d565b82525050565b600060208201905061165d6000830184611639565b92915050565b61166c816114fc565b82525050565b60006020820190506116876000830184611663565b92915050565b6000806000606084860312156116a6576116a5611499565b5b60006116b4868287016114e7565b93505060206116c5868287016114e7565b92505060406116d68682870161151d565b9150509250925092565b600060ff82169050919050565b6116f6816116e0565b82525050565b600060208201905061171160008301846116ed565b92915050565b60006020828403121561172d5761172c611499565b5b600061173b848285016114e7565b91505092915050565b61174d816114be565b82525050565b60006020820190506117686000830184611744565b92915050565b6000806040838503121561178557611784611499565b5b6000611793858286016114e7565b92505060206117a4858286016114e7565b9150509250929050565b6000602082840312156117c4576117c3611499565b5b60006117d28482850161151d565b91505092915050565b6000819050919050565b60006118006117fb6117f68461149e565b6117db565b61149e565b9050919050565b6000611812826117e5565b9050919050565b600061182482611807565b9050919050565b61183481611819565b82525050565b600060208201905061184f600083018461182b565b92915050565b7f4e487b7100000000000000000000000000000000000000000000000000000000600052602260045260246000fd5b6000600282049050600182168061189c57607f821691505b602082108114156118b0576118af611855565b5b50919050565b7f546865206c6173742072656c6561736520776173206c657373207468616e206f60008201527f6e65206d696e7574652061676f2e000000000000000000000000000000000000602082015250565b6000611912602e8361157d565b915061191d826118b6565b604082019050919050565b6000602082019050818103600083015261194181611905565b9050919050565b7f4e487b7100000000000000000000000000000000000000000000000000000000600052603260045260246000fd5b7f4e487b7100000000000000000000000000000000000000000000000000000000600052601160045260246000fd5b60006119b1826114fc565b91507fffffffffffffffffffffffffffffffffffffffffffffffffffffffffffffffff8214156119e4576119e3611977565b5b600182019050919050565b7f45524332303a207472616e7366657220616d6f756e742065786365656473206160008201527f6c6c6f77616e6365000000000000000000000000000000000000000000000000602082015250565b6000611a4b60288361157d565b9150611a56826119ef565b604082019050919050565b60006020820190508181036000830152611a7a81611a3e565b9050919050565b6000611a8c826114fc565b9150611a97836114fc565b9250827fffffffffffffffffffffffffffffffffffffffffffffffffffffffffffffffff03821115611acc57611acb611977565b5b828201905092915050565b7f4f776e61626c653a2063616c6c6572206973206e6f7420746865206f776e6572600082015250565b6000611b0d60208361157d565b9150611b1882611ad7565b602082019050919050565b60006020820190508181036000830152611b3c81611b00565b9050919050565b7f54686520616464726573732063616e27742062652061207a65726f206164647260008201527f6573730000000000000000000000000000000000000000000000000000000000602082015250565b6000611b9f60238361157d565b9150611baa82611b43565b604082019050919050565b60006020820190508181036000830152611bce81611b92565b9050919050565b7f54686572652061726520616c72656164792031302062656e656669636961726960008201527f65732e0000000000000000000000000000000000000000000000000000000000602082015250565b6000611c3160238361157d565b9150611c3c82611bd5565b604082019050919050565b60006020820190508181036000830152611c6081611c24565b9050919050565b7f45524332303a2064656372656173656420616c6c6f77616e63652062656c6f7760008201527f207a65726f000000000000000000000000000000000000000000000000000000602082015250565b6000611cc360258361157d565b9150611cce82611c67565b604082019050919050565b60006020820190508181036000830152611cf281611cb6565b9050919050565b7f4f776e61626c653a206e6577206f776e657220697320746865207a65726f206160008201527f6464726573730000000000000000000000000000000000000000000000000000602082015250565b6000611d5560268361157d565b9150611d6082611cf9565b604082019050919050565b60006020820190508181036000830152611d8481611d48565b9050919050565b7f45524332303a20617070726f76652066726f6d20746865207a65726f2061646460008201527f7265737300000000000000000000000000000000000000000000000000000000602082015250565b6000611de760248361157d565b9150611df282611d8b565b604082019050919050565b60006020820190508181036000830152611e1681611dda565b9050919050565b7f45524332303a20617070726f766520746f20746865207a65726f20616464726560008201527f7373000000000000000000000000000000000000000000000000000000000000602082015250565b6000611e7960228361157d565b9150611e8482611e1d565b604082019050919050565b60006020820190508181036000830152611ea881611e6c565b9050919050565b6000611eba826114fc565b9150611ec5836114fc565b925082821015611ed857611ed7611977565b5b828203905092915050565b7f4e487b7100000000000000000000000000000000000000000000000000000000600052601260045260246000fd5b6000611f1d826114fc565b9150611f28836114fc565b925082611f3857611f37611ee3565b5b828204905092915050565b6000611f4e826114fc565b9150611f59836114fc565b9250817fffffffffffffffffffffffffffffffffffffffffffffffffffffffffffffffff0483118215151615611f9257611f91611977565b5b828202905092915050565b7f45524332303a207472616e736665722066726f6d20746865207a65726f20616460008201527f6472657373000000000000000000000000000000000000000000000000000000602082015250565b6000611ff960258361157d565b915061200482611f9d565b604082019050919050565b6000602082019050818103600083015261202881611fec565b9050919050565b7f45524332303a207472616e7366657220746f20746865207a65726f206164647260008201527f6573730000000000000000000000000000000000000000000000000000000000602082015250565b600061208b60238361157d565b91506120968261202f565b604082019050919050565b600060208201905081810360008301526120ba8161207e565b9050919050565b7f45524332303a207472616e7366657220616d6f756e742065786365656473206260008201527f616c616e63650000000000000000000000000000000000000000000000000000602082015250565b600061211d60268361157d565b9150612128826120c1565b604082019050919050565b6000602082019050818103600083015261214c81612110565b905091905056fea2646970667358221220b57998f260dc344e469610ef9be697ea4ead8d9af507f9ff9250391def41692b64736f6c634300080b0033",
  "immutableReferences": {},
  "source": "// SPDX-License-Identifier: MIT\npragma solidity ^0.8.11;\n\nimport \"@openzeppelin/contracts/access/Ownable.sol\";\nimport \"@openzeppelin/contracts/utils/math/SafeMath.sol\";\nimport \"./XYZToken.sol\";\n\ncontract Vesting is Ownable, XYZToken {\n    using SafeMath for uint256;\n\n    address[] public beneficiaries;\n    // mapping to check whether the beneficary already exists (cheaper than a loop for the array)\n    mapping(address => bool) isBeneficiary;\n\n    uint256 startTime;\n    uint256 endTime;\n    uint256 lastRelease;\n\n    XYZToken public token;\n\n    uint256 releases;\n    uint256 releaseAmount;\n    uint256 tokensPerBeneficiaryPerMinute;\n\n    constructor() {\n        // dispersed tokens per minute in total\n        // 365 days * 24 hours * 60 minutes\n        releases = 525600;\n        releaseAmount = totalSupply() / releases;\n        tokensPerBeneficiaryPerMinute = releaseAmount / 10;\n\n        startTime = block.timestamp;\n        endTime = startTime + 365 days;\n        lastRelease = startTime;\n    }\n\n    function addBeneficiaries(address _beneficiary) public onlyOwner {\n        require(\n            _beneficiary != address(0),\n            \"The address can't be a zero address\"\n        );\n        require(\n            beneficiaries.length < 10,\n            \"There are already 10 beneficiaries.\"\n        );\n        require(!isBeneficiary[_beneficiary]);\n        // 10% share for each\n        beneficiaries.push(_beneficiary);\n        isBeneficiary[_beneficiary] = true;\n    }\n\n    function tokenVesting() public {\n        uint256 timeDifference;\n        uint256 minutesSinceLastRelease;\n        uint256 amount;\n\n        require(lastRelease < endTime);\n        // in case the year is already over and the tokens haven't been transferred in time\n        if (block.timestamp > endTime) {\n            timeDifference = endTime.sub(lastRelease);\n        } else {\n            timeDifference = block.timestamp.sub(lastRelease);\n        }\n        require(\n            timeDifference >= 60,\n            \"The last release was less than one minute ago.\"\n        );\n\n        minutesSinceLastRelease = timeDifference.div(60);\n        amount = minutesSinceLastRelease.mul(tokensPerBeneficiaryPerMinute);\n\n        require(block.timestamp <= endTime || lastRelease < endTime);\n\n        for (uint256 i = 0; i < beneficiaries.length; i++) {\n            release(beneficiaries[i], amount);\n        }\n    }\n\n    function release(address _beneficiary, uint256 amount)\n        public\n        payable\n        virtual\n    {\n        transfer(payable(_beneficiary), amount);\n        lastRelease = block.timestamp;\n    }\n}\n",
  "sourcePath": "/Users/navinalang/token-vesting/contracts/Vesting.sol",
  "compiler": {
    "name": "solc",
    "version": "0.8.11+commit.d7f03943.Emscripten.clang"
  },
  "schemaVersion": "3.4.4",
  "updatedAt": "2022-02-06T14:07:08.685Z",
  "networkType": "ethereum",
  "devdoc": {
    "kind": "dev",
    "methods": {
      "allowance(address,address)": {
        "details": "See {IERC20-allowance}."
      },
      "approve(address,uint256)": {
        "details": "See {IERC20-approve}. Requirements: - `spender` cannot be the zero address."
      },
      "balanceOf(address)": {
        "details": "See {IERC20-balanceOf}."
      },
      "decimals()": {
        "details": "Returns the number of decimals used to get its user representation. For example, if `decimals` equals `2`, a balance of `505` tokens should be displayed to a user as `5.05` (`505 / 10 ** 2`). Tokens usually opt for a value of 18, imitating the relationship between Ether and Wei. This is the value {ERC20} uses, unless this function is overridden; NOTE: This information is only used for _display_ purposes: it in no way affects any of the arithmetic of the contract, including {IERC20-balanceOf} and {IERC20-transfer}."
      },
      "decreaseAllowance(address,uint256)": {
        "details": "Atomically decreases the allowance granted to `spender` by the caller. This is an alternative to {approve} that can be used as a mitigation for problems described in {IERC20-approve}. Emits an {Approval} event indicating the updated allowance. Requirements: - `spender` cannot be the zero address. - `spender` must have allowance for the caller of at least `subtractedValue`."
      },
      "increaseAllowance(address,uint256)": {
        "details": "Atomically increases the allowance granted to `spender` by the caller. This is an alternative to {approve} that can be used as a mitigation for problems described in {IERC20-approve}. Emits an {Approval} event indicating the updated allowance. Requirements: - `spender` cannot be the zero address."
      },
      "name()": {
        "details": "Returns the name of the token."
      },
      "owner()": {
        "details": "Returns the address of the current owner."
      },
      "renounceOwnership()": {
        "details": "Leaves the contract without owner. It will not be possible to call `onlyOwner` functions anymore. Can only be called by the current owner. NOTE: Renouncing ownership will leave the contract without an owner, thereby removing any functionality that is only available to the owner."
      },
      "symbol()": {
        "details": "Returns the symbol of the token, usually a shorter version of the name."
      },
      "totalSupply()": {
        "details": "See {IERC20-totalSupply}."
      },
      "transfer(address,uint256)": {
        "details": "See {IERC20-transfer}. Requirements: - `recipient` cannot be the zero address. - the caller must have a balance of at least `amount`."
      },
      "transferFrom(address,address,uint256)": {
        "details": "See {IERC20-transferFrom}. Emits an {Approval} event indicating the updated allowance. This is not required by the EIP. See the note at the beginning of {ERC20}. Requirements: - `sender` and `recipient` cannot be the zero address. - `sender` must have a balance of at least `amount`. - the caller must have allowance for ``sender``'s tokens of at least `amount`."
      },
      "transferOwnership(address)": {
        "details": "Transfers ownership of the contract to a new account (`newOwner`). Can only be called by the current owner."
      }
    },
    "version": 1
  },
  "userdoc": {
    "kind": "user",
    "methods": {},
    "version": 1
  }
}