{
  "contractName": "Vesting",
  "abi": [
    {
      "inputs": [],
      "stateMutability": "nonpayable",
      "type": "constructor"
    },
    {
      "anonymous": false,
      "inputs": [
        {
          "indexed": true,
          "internalType": "address",
          "name": "owner",
          "type": "address"
        },
        {
          "indexed": true,
          "internalType": "address",
          "name": "spender",
          "type": "address"
        },
        {
          "indexed": false,
          "internalType": "uint256",
          "name": "value",
          "type": "uint256"
        }
      ],
      "name": "Approval",
      "type": "event"
    },
    {
      "anonymous": false,
      "inputs": [
        {
          "indexed": true,
          "internalType": "address",
          "name": "previousOwner",
          "type": "address"
        },
        {
          "indexed": true,
          "internalType": "address",
          "name": "newOwner",
          "type": "address"
        }
      ],
      "name": "OwnershipTransferred",
      "type": "event"
    },
    {
      "anonymous": false,
      "inputs": [
        {
          "indexed": true,
          "internalType": "address",
          "name": "from",
          "type": "address"
        },
        {
          "indexed": true,
          "internalType": "address",
          "name": "to",
          "type": "address"
        },
        {
          "indexed": false,
          "internalType": "uint256",
          "name": "value",
          "type": "uint256"
        }
      ],
      "name": "Transfer",
      "type": "event"
    },
    {
      "inputs": [
        {
          "internalType": "address",
          "name": "owner",
          "type": "address"
        },
        {
          "internalType": "address",
          "name": "spender",
          "type": "address"
        }
      ],
      "name": "allowance",
      "outputs": [
        {
          "internalType": "uint256",
          "name": "",
          "type": "uint256"
        }
      ],
      "stateMutability": "view",
      "type": "function",
      "constant": true
    },
    {
      "inputs": [
        {
          "internalType": "address",
          "name": "spender",
          "type": "address"
        },
        {
          "internalType": "uint256",
          "name": "amount",
          "type": "uint256"
        }
      ],
      "name": "approve",
      "outputs": [
        {
          "internalType": "bool",
          "name": "",
          "type": "bool"
        }
      ],
      "stateMutability": "nonpayable",
      "type": "function"
    },
    {
      "inputs": [
        {
          "internalType": "address",
          "name": "account",
          "type": "address"
        }
      ],
      "name": "balanceOf",
      "outputs": [
        {
          "internalType": "uint256",
          "name": "",
          "type": "uint256"
        }
      ],
      "stateMutability": "view",
      "type": "function",
      "constant": true
    },
    {
      "inputs": [],
      "name": "decimals",
      "outputs": [
        {
          "internalType": "uint8",
          "name": "",
          "type": "uint8"
        }
      ],
      "stateMutability": "view",
      "type": "function",
      "constant": true
    },
    {
      "inputs": [
        {
          "internalType": "address",
          "name": "spender",
          "type": "address"
        },
        {
          "internalType": "uint256",
          "name": "subtractedValue",
          "type": "uint256"
        }
      ],
      "name": "decreaseAllowance",
      "outputs": [
        {
          "internalType": "bool",
          "name": "",
          "type": "bool"
        }
      ],
      "stateMutability": "nonpayable",
      "type": "function"
    },
    {
      "inputs": [],
      "name": "endTime",
      "outputs": [
        {
          "internalType": "uint256",
          "name": "",
          "type": "uint256"
        }
      ],
      "stateMutability": "view",
      "type": "function",
      "constant": true
    },
    {
      "inputs": [
        {
          "internalType": "address",
          "name": "spender",
          "type": "address"
        },
        {
          "internalType": "uint256",
          "name": "addedValue",
          "type": "uint256"
        }
      ],
      "name": "increaseAllowance",
      "outputs": [
        {
          "internalType": "bool",
          "name": "",
          "type": "bool"
        }
      ],
      "stateMutability": "nonpayable",
      "type": "function"
    },
    {
      "inputs": [],
      "name": "name",
      "outputs": [
        {
          "internalType": "string",
          "name": "",
          "type": "string"
        }
      ],
      "stateMutability": "view",
      "type": "function",
      "constant": true
    },
    {
      "inputs": [],
      "name": "owner",
      "outputs": [
        {
          "internalType": "address",
          "name": "",
          "type": "address"
        }
      ],
      "stateMutability": "view",
      "type": "function",
      "constant": true
    },
    {
      "inputs": [],
      "name": "renounceOwnership",
      "outputs": [],
      "stateMutability": "nonpayable",
      "type": "function"
    },
    {
      "inputs": [
        {
          "internalType": "address",
          "name": "",
          "type": "address"
        }
      ],
      "name": "shares",
      "outputs": [
        {
          "internalType": "uint256",
          "name": "",
          "type": "uint256"
        }
      ],
      "stateMutability": "view",
      "type": "function",
      "constant": true
    },
    {
      "inputs": [],
      "name": "symbol",
      "outputs": [
        {
          "internalType": "string",
          "name": "",
          "type": "string"
        }
      ],
      "stateMutability": "view",
      "type": "function",
      "constant": true
    },
    {
      "inputs": [],
      "name": "token",
      "outputs": [
        {
          "internalType": "contract XYZToken",
          "name": "",
          "type": "address"
        }
      ],
      "stateMutability": "view",
      "type": "function",
      "constant": true
    },
    {
      "inputs": [],
      "name": "totalSupply",
      "outputs": [
        {
          "internalType": "uint256",
          "name": "",
          "type": "uint256"
        }
      ],
      "stateMutability": "view",
      "type": "function",
      "constant": true
    },
    {
      "inputs": [
        {
          "internalType": "address",
          "name": "recipient",
          "type": "address"
        },
        {
          "internalType": "uint256",
          "name": "amount",
          "type": "uint256"
        }
      ],
      "name": "transfer",
      "outputs": [
        {
          "internalType": "bool",
          "name": "",
          "type": "bool"
        }
      ],
      "stateMutability": "nonpayable",
      "type": "function"
    },
    {
      "inputs": [
        {
          "internalType": "address",
          "name": "sender",
          "type": "address"
        },
        {
          "internalType": "address",
          "name": "recipient",
          "type": "address"
        },
        {
          "internalType": "uint256",
          "name": "amount",
          "type": "uint256"
        }
      ],
      "name": "transferFrom",
      "outputs": [
        {
          "internalType": "bool",
          "name": "",
          "type": "bool"
        }
      ],
      "stateMutability": "nonpayable",
      "type": "function"
    },
    {
      "inputs": [
        {
          "internalType": "address",
          "name": "newOwner",
          "type": "address"
        }
      ],
      "name": "transferOwnership",
      "outputs": [],
      "stateMutability": "nonpayable",
      "type": "function"
    },
    {
      "inputs": [
        {
          "internalType": "address",
          "name": "_beneficiary",
          "type": "address"
        }
      ],
      "name": "addBeneficiaries",
      "outputs": [],
      "stateMutability": "nonpayable",
      "type": "function"
    },
    {
      "inputs": [],
      "name": "calcTimeDifference",
      "outputs": [
        {
          "internalType": "uint256",
          "name": "",
          "type": "uint256"
        }
      ],
      "stateMutability": "view",
      "type": "function",
      "constant": true
    },
    {
      "inputs": [
        {
          "internalType": "address",
          "name": "_beneficiary",
          "type": "address"
        }
      ],
      "name": "release",
      "outputs": [],
      "stateMutability": "payable",
      "type": "function",
      "payable": true
    }
  ],
  "bytecode": "0x60806040523480156200001157600080fd5b506040518060400160405280600881526020017f58595a546f6b656e0000000000000000000000000000000000000000000000008152506040518060400160405280600381526020017f58595a00000000000000000000000000000000000000000000000000000000008152506200009e620000926200017460201b60201c565b6200017c60201b60201c565b8160049080519060200190620000b6929190620003cd565b508060059080519060200190620000cf929190620003cd565b5050506200011233620000e76200024060201b60201c565b600a620000f5919062000617565b6305f5e10062000106919062000668565b6200024960201b60201c565b62080520600d81905550600d546305f5e100620001309190620006f8565b600e81905550600a600e54620001479190620006f8565b600f81905550426009819055506301e1338060095462000168919062000730565b600a81905550620008a3565b600033905090565b60008060009054906101000a900473ffffffffffffffffffffffffffffffffffffffff169050816000806101000a81548173ffffffffffffffffffffffffffffffffffffffff021916908373ffffffffffffffffffffffffffffffffffffffff1602179055508173ffffffffffffffffffffffffffffffffffffffff168173ffffffffffffffffffffffffffffffffffffffff167f8be0079c531659141344cd1fd0a4f28419497f9722a3daafe3b4186f6b6457e060405160405180910390a35050565b60006012905090565b600073ffffffffffffffffffffffffffffffffffffffff168273ffffffffffffffffffffffffffffffffffffffff161415620002bc576040517f08c379a0000000000000000000000000000000000000000000000000000000008152600401620002b390620007ee565b60405180910390fd5b620002d060008383620003c360201b60201c565b8060036000828254620002e4919062000730565b9250508190555080600160008473ffffffffffffffffffffffffffffffffffffffff1673ffffffffffffffffffffffffffffffffffffffff16815260200190815260200160002060008282546200033c919062000730565b925050819055508173ffffffffffffffffffffffffffffffffffffffff16600073ffffffffffffffffffffffffffffffffffffffff167fddf252ad1be2c89b69c2b068fc378daa952ba7f163c4a11628f55a4df523b3ef83604051620003a3919062000821565b60405180910390a3620003bf60008383620003c860201b60201c565b5050565b505050565b505050565b828054620003db906200086d565b90600052602060002090601f016020900481019282620003ff57600085556200044b565b82601f106200041a57805160ff19168380011785556200044b565b828001600101855582156200044b579182015b828111156200044a5782518255916020019190600101906200042d565b5b5090506200045a91906200045e565b5090565b5b80821115620004795760008160009055506001016200045f565b5090565b7f4e487b7100000000000000000000000000000000000000000000000000000000600052601160045260246000fd5b60008160011c9050919050565b6000808291508390505b60018511156200050b57808604811115620004e357620004e26200047d565b5b6001851615620004f35780820291505b80810290506200050385620004ac565b9450620004c3565b94509492505050565b600082620005265760019050620005f9565b81620005365760009050620005f9565b81600181146200054f57600281146200055a5762000590565b6001915050620005f9565b60ff8411156200056f576200056e6200047d565b5b8360020a9150848211156200058957620005886200047d565b5b50620005f9565b5060208310610133831016604e8410600b8410161715620005ca5782820a905083811115620005c457620005c36200047d565b5b620005f9565b620005d98484846001620004b9565b92509050818404811115620005f357620005f26200047d565b5b81810290505b9392505050565b6000819050919050565b600060ff82169050919050565b6000620006248262000600565b915062000631836200060a565b9250620006607fffffffffffffffffffffffffffffffffffffffffffffffffffffffffffffffff848462000514565b905092915050565b6000620006758262000600565b9150620006828362000600565b9250817fffffffffffffffffffffffffffffffffffffffffffffffffffffffffffffffff0483118215151615620006be57620006bd6200047d565b5b828202905092915050565b7f4e487b7100000000000000000000000000000000000000000000000000000000600052601260045260246000fd5b6000620007058262000600565b9150620007128362000600565b925082620007255762000724620006c9565b5b828204905092915050565b60006200073d8262000600565b91506200074a8362000600565b9250827fffffffffffffffffffffffffffffffffffffffffffffffffffffffffffffffff038211156200078257620007816200047d565b5b828201905092915050565b600082825260208201905092915050565b7f45524332303a206d696e7420746f20746865207a65726f206164647265737300600082015250565b6000620007d6601f836200078d565b9150620007e3826200079e565b602082019050919050565b600060208201905081810360008301526200080981620007c7565b9050919050565b6200081b8162000600565b82525050565b600060208201905062000838600083018462000810565b92915050565b7f4e487b7100000000000000000000000000000000000000000000000000000000600052602260045260246000fd5b600060028204905060018216806200088657607f821691505b602082108114156200089d576200089c6200083e565b5b50919050565b611ff880620008b36000396000f3fe60806040526004361061011f5760003560e01c80638da5cb5b116100a0578063b94e86ea11610064578063b94e86ea146103f0578063ce7c2ac21461041b578063dd62ed3e14610458578063f2fde38b14610495578063fc0c546a146104be5761011f565b80638da5cb5b146102f75780639252d73b1461032257806395d89b411461034b578063a457c2d714610376578063a9059cbb146103b35761011f565b8063313ce567116100e7578063313ce567146102105780633197cbb61461023b578063395093511461026657806370a08231146102a3578063715018a6146102e05761011f565b806306fdde0314610124578063095ea7b31461014f57806318160ddd1461018c57806319165587146101b757806323b872dd146101d3575b600080fd5b34801561013057600080fd5b506101396104e9565b604051610146919061148f565b60405180910390f35b34801561015b57600080fd5b506101766004803603810190610171919061154a565b61057b565b60405161018391906115a5565b60405180910390f35b34801561019857600080fd5b506101a1610599565b6040516101ae91906115cf565b60405180910390f35b6101d160048036038101906101cc91906115ea565b6105a3565b005b3480156101df57600080fd5b506101fa60048036038101906101f59190611617565b610602565b60405161020791906115a5565b60405180910390f35b34801561021c57600080fd5b506102256106fa565b6040516102329190611686565b60405180910390f35b34801561024757600080fd5b50610250610703565b60405161025d91906115cf565b60405180910390f35b34801561027257600080fd5b5061028d6004803603810190610288919061154a565b610709565b60405161029a91906115a5565b60405180910390f35b3480156102af57600080fd5b506102ca60048036038101906102c591906115ea565b6107b5565b6040516102d791906115cf565b60405180910390f35b3480156102ec57600080fd5b506102f56107fe565b005b34801561030357600080fd5b5061030c610886565b60405161031991906116b0565b60405180910390f35b34801561032e57600080fd5b50610349600480360381019061034491906115ea565b6108af565b005b34801561035757600080fd5b50610360610aed565b60405161036d919061148f565b60405180910390f35b34801561038257600080fd5b5061039d6004803603810190610398919061154a565b610b7f565b6040516103aa91906115a5565b60405180910390f35b3480156103bf57600080fd5b506103da60048036038101906103d5919061154a565b610c6a565b6040516103e791906115a5565b60405180910390f35b3480156103fc57600080fd5b50610405610c88565b60405161041291906115cf565b60405180910390f35b34801561042757600080fd5b50610442600480360381019061043d91906115ea565b610cbc565b60405161044f91906115cf565b60405180910390f35b34801561046457600080fd5b5061047f600480360381019061047a91906116cb565b610cd4565b60405161048c91906115cf565b60405180910390f35b3480156104a157600080fd5b506104bc60048036038101906104b791906115ea565b610d5b565b005b3480156104ca57600080fd5b506104d3610e53565b6040516104e0919061176a565b60405180910390f35b6060600480546104f8906117b4565b80601f0160208091040260200160405190810160405280929190818152602001828054610524906117b4565b80156105715780601f1061054657610100808354040283529160200191610571565b820191906000526020600020905b81548152906001019060200180831161055457829003601f168201915b5050505050905090565b600061058f610588610e79565b8484610e81565b6001905092915050565b6000600354905090565b60006105ad610c88565b9050600b548111156105bf57600b5490505b60006105d682600e5461104c90919063ffffffff16565b90506105e483600e54610c6a565b50600b60008154809291906105f890611815565b9190505550505050565b600061060f848484611062565b6000600260008673ffffffffffffffffffffffffffffffffffffffff1673ffffffffffffffffffffffffffffffffffffffff168152602001908152602001600020600061065a610e79565b73ffffffffffffffffffffffffffffffffffffffff1673ffffffffffffffffffffffffffffffffffffffff168152602001908152602001600020549050828110156106da576040517f08c379a00000000000000000000000000000000000000000000000000000000081526004016106d1906118d0565b60405180910390fd5b6106ee856106e6610e79565b858403610e81565b60019150509392505050565b60006012905090565b600a5481565b60006107ab610716610e79565b848460026000610724610e79565b73ffffffffffffffffffffffffffffffffffffffff1673ffffffffffffffffffffffffffffffffffffffff16815260200190815260200160002060008873ffffffffffffffffffffffffffffffffffffffff1673ffffffffffffffffffffffffffffffffffffffff168152602001908152602001600020546107a691906118f0565b610e81565b6001905092915050565b6000600160008373ffffffffffffffffffffffffffffffffffffffff1673ffffffffffffffffffffffffffffffffffffffff168152602001908152602001600020549050919050565b610806610e79565b73ffffffffffffffffffffffffffffffffffffffff16610824610886565b73ffffffffffffffffffffffffffffffffffffffff161461087a576040517f08c379a000000000000000000000000000000000000000000000000000000000815260040161087190611992565b60405180910390fd5b61088460006112e6565b565b60008060009054906101000a900473ffffffffffffffffffffffffffffffffffffffff16905090565b6108b7610e79565b73ffffffffffffffffffffffffffffffffffffffff166108d5610886565b73ffffffffffffffffffffffffffffffffffffffff161461092b576040517f08c379a000000000000000000000000000000000000000000000000000000000815260040161092290611992565b60405180910390fd5b600073ffffffffffffffffffffffffffffffffffffffff168173ffffffffffffffffffffffffffffffffffffffff16141561099b576040517f08c379a000000000000000000000000000000000000000000000000000000000815260040161099290611a24565b60405180910390fd5b600a6008541080156109ec57506000600660008373ffffffffffffffffffffffffffffffffffffffff1673ffffffffffffffffffffffffffffffffffffffff16815260200190815260200160002054145b610a2b576040517f08c379a0000000000000000000000000000000000000000000000000000000008152600401610a2290611ab6565b60405180910390fd5b600a600660008373ffffffffffffffffffffffffffffffffffffffff1673ffffffffffffffffffffffffffffffffffffffff168152602001908152602001600020819055506007819080600181540180825580915050600190039060005260206000200160009091909190916101000a81548173ffffffffffffffffffffffffffffffffffffffff021916908373ffffffffffffffffffffffffffffffffffffffff160217905550610ae960016008546113aa90919063ffffffff16565b5050565b606060058054610afc906117b4565b80601f0160208091040260200160405190810160405280929190818152602001828054610b28906117b4565b8015610b755780601f10610b4a57610100808354040283529160200191610b75565b820191906000526020600020905b815481529060010190602001808311610b5857829003601f168201915b5050505050905090565b60008060026000610b8e610e79565b73ffffffffffffffffffffffffffffffffffffffff1673ffffffffffffffffffffffffffffffffffffffff16815260200190815260200160002060008573ffffffffffffffffffffffffffffffffffffffff1673ffffffffffffffffffffffffffffffffffffffff16815260200190815260200160002054905082811015610c4b576040517f08c379a0000000000000000000000000000000000000000000000000000000008152600401610c4290611b48565b60405180910390fd5b610c5f610c56610e79565b85858403610e81565b600191505092915050565b6000610c7e610c77610e79565b8484611062565b6001905092915050565b600080610ca0600954426113c090919063ffffffff16565b9050610cb6603c826113d690919063ffffffff16565b91505090565b60066020528060005260406000206000915090505481565b6000600260008473ffffffffffffffffffffffffffffffffffffffff1673ffffffffffffffffffffffffffffffffffffffff16815260200190815260200160002060008373ffffffffffffffffffffffffffffffffffffffff1673ffffffffffffffffffffffffffffffffffffffff16815260200190815260200160002054905092915050565b610d63610e79565b73ffffffffffffffffffffffffffffffffffffffff16610d81610886565b73ffffffffffffffffffffffffffffffffffffffff1614610dd7576040517f08c379a0000000000000000000000000000000000000000000000000000000008152600401610dce90611992565b60405180910390fd5b600073ffffffffffffffffffffffffffffffffffffffff168173ffffffffffffffffffffffffffffffffffffffff161415610e47576040517f08c379a0000000000000000000000000000000000000000000000000000000008152600401610e3e90611bda565b60405180910390fd5b610e50816112e6565b50565b600c60009054906101000a900473ffffffffffffffffffffffffffffffffffffffff1681565b600033905090565b600073ffffffffffffffffffffffffffffffffffffffff168373ffffffffffffffffffffffffffffffffffffffff161415610ef1576040517f08c379a0000000000000000000000000000000000000000000000000000000008152600401610ee890611c6c565b60405180910390fd5b600073ffffffffffffffffffffffffffffffffffffffff168273ffffffffffffffffffffffffffffffffffffffff161415610f61576040517f08c379a0000000000000000000000000000000000000000000000000000000008152600401610f5890611cfe565b60405180910390fd5b80600260008573ffffffffffffffffffffffffffffffffffffffff1673ffffffffffffffffffffffffffffffffffffffff16815260200190815260200160002060008473ffffffffffffffffffffffffffffffffffffffff1673ffffffffffffffffffffffffffffffffffffffff168152602001908152602001600020819055508173ffffffffffffffffffffffffffffffffffffffff168373ffffffffffffffffffffffffffffffffffffffff167f8c5be1e5ebec7d5bd14f71427d1e84f3dd0314c0f7b2291e5b200ac8c7c3b9258360405161103f91906115cf565b60405180910390a3505050565b6000818361105a9190611d1e565b905092915050565b600073ffffffffffffffffffffffffffffffffffffffff168373ffffffffffffffffffffffffffffffffffffffff1614156110d2576040517f08c379a00000000000000000000000000000000000000000000000000000000081526004016110c990611dea565b60405180910390fd5b600073ffffffffffffffffffffffffffffffffffffffff168273ffffffffffffffffffffffffffffffffffffffff161415611142576040517f08c379a000000000000000000000000000000000000000000000000000000000815260040161113990611e7c565b60405180910390fd5b61114d8383836113ec565b6000600160008573ffffffffffffffffffffffffffffffffffffffff1673ffffffffffffffffffffffffffffffffffffffff168152602001908152602001600020549050818110156111d4576040517f08c379a00000000000000000000000000000000000000000000000000000000081526004016111cb90611f0e565b60405180910390fd5b818103600160008673ffffffffffffffffffffffffffffffffffffffff1673ffffffffffffffffffffffffffffffffffffffff1681526020019081526020016000208190555081600160008573ffffffffffffffffffffffffffffffffffffffff1673ffffffffffffffffffffffffffffffffffffffff168152602001908152602001600020600082825461126991906118f0565b925050819055508273ffffffffffffffffffffffffffffffffffffffff168473ffffffffffffffffffffffffffffffffffffffff167fddf252ad1be2c89b69c2b068fc378daa952ba7f163c4a11628f55a4df523b3ef846040516112cd91906115cf565b60405180910390a36112e08484846113f1565b50505050565b60008060009054906101000a900473ffffffffffffffffffffffffffffffffffffffff169050816000806101000a81548173ffffffffffffffffffffffffffffffffffffffff021916908373ffffffffffffffffffffffffffffffffffffffff1602179055508173ffffffffffffffffffffffffffffffffffffffff168173ffffffffffffffffffffffffffffffffffffffff167f8be0079c531659141344cd1fd0a4f28419497f9722a3daafe3b4186f6b6457e060405160405180910390a35050565b600081836113b891906118f0565b905092915050565b600081836113ce9190611f2e565b905092915050565b600081836113e49190611f91565b905092915050565b505050565b505050565b600081519050919050565b600082825260208201905092915050565b60005b83811015611430578082015181840152602081019050611415565b8381111561143f576000848401525b50505050565b6000601f19601f8301169050919050565b6000611461826113f6565b61146b8185611401565b935061147b818560208601611412565b61148481611445565b840191505092915050565b600060208201905081810360008301526114a98184611456565b905092915050565b600080fd5b600073ffffffffffffffffffffffffffffffffffffffff82169050919050565b60006114e1826114b6565b9050919050565b6114f1816114d6565b81146114fc57600080fd5b50565b60008135905061150e816114e8565b92915050565b6000819050919050565b61152781611514565b811461153257600080fd5b50565b6000813590506115448161151e565b92915050565b60008060408385031215611561576115606114b1565b5b600061156f858286016114ff565b925050602061158085828601611535565b9150509250929050565b60008115159050919050565b61159f8161158a565b82525050565b60006020820190506115ba6000830184611596565b92915050565b6115c981611514565b82525050565b60006020820190506115e460008301846115c0565b92915050565b600060208284031215611600576115ff6114b1565b5b600061160e848285016114ff565b91505092915050565b6000806000606084860312156116305761162f6114b1565b5b600061163e868287016114ff565b935050602061164f868287016114ff565b925050604061166086828701611535565b9150509250925092565b600060ff82169050919050565b6116808161166a565b82525050565b600060208201905061169b6000830184611677565b92915050565b6116aa816114d6565b82525050565b60006020820190506116c560008301846116a1565b92915050565b600080604083850312156116e2576116e16114b1565b5b60006116f0858286016114ff565b9250506020611701858286016114ff565b9150509250929050565b6000819050919050565b600061173061172b611726846114b6565b61170b565b6114b6565b9050919050565b600061174282611715565b9050919050565b600061175482611737565b9050919050565b61176481611749565b82525050565b600060208201905061177f600083018461175b565b92915050565b7f4e487b7100000000000000000000000000000000000000000000000000000000600052602260045260246000fd5b600060028204905060018216806117cc57607f821691505b602082108114156117e0576117df611785565b5b50919050565b7f4e487b7100000000000000000000000000000000000000000000000000000000600052601160045260246000fd5b600061182082611514565b91507fffffffffffffffffffffffffffffffffffffffffffffffffffffffffffffffff821415611853576118526117e6565b5b600182019050919050565b7f45524332303a207472616e7366657220616d6f756e742065786365656473206160008201527f6c6c6f77616e6365000000000000000000000000000000000000000000000000602082015250565b60006118ba602883611401565b91506118c58261185e565b604082019050919050565b600060208201905081810360008301526118e9816118ad565b9050919050565b60006118fb82611514565b915061190683611514565b9250827fffffffffffffffffffffffffffffffffffffffffffffffffffffffffffffffff0382111561193b5761193a6117e6565b5b828201905092915050565b7f4f776e61626c653a2063616c6c6572206973206e6f7420746865206f776e6572600082015250565b600061197c602083611401565b915061198782611946565b602082019050919050565b600060208201905081810360008301526119ab8161196f565b9050919050565b7f54686520616464726573732063616e27742062652061207a65726f206164647260008201527f6573730000000000000000000000000000000000000000000000000000000000602082015250565b6000611a0e602383611401565b9150611a19826119b2565b604082019050919050565b60006020820190508181036000830152611a3d81611a01565b9050919050565b7f54686572652061726520616c72656164792031302062656e656669636961726960008201527f65732e0000000000000000000000000000000000000000000000000000000000602082015250565b6000611aa0602383611401565b9150611aab82611a44565b604082019050919050565b60006020820190508181036000830152611acf81611a93565b9050919050565b7f45524332303a2064656372656173656420616c6c6f77616e63652062656c6f7760008201527f207a65726f000000000000000000000000000000000000000000000000000000602082015250565b6000611b32602583611401565b9150611b3d82611ad6565b604082019050919050565b60006020820190508181036000830152611b6181611b25565b9050919050565b7f4f776e61626c653a206e6577206f776e657220697320746865207a65726f206160008201527f6464726573730000000000000000000000000000000000000000000000000000602082015250565b6000611bc4602683611401565b9150611bcf82611b68565b604082019050919050565b60006020820190508181036000830152611bf381611bb7565b9050919050565b7f45524332303a20617070726f76652066726f6d20746865207a65726f2061646460008201527f7265737300000000000000000000000000000000000000000000000000000000602082015250565b6000611c56602483611401565b9150611c6182611bfa565b604082019050919050565b60006020820190508181036000830152611c8581611c49565b9050919050565b7f45524332303a20617070726f766520746f20746865207a65726f20616464726560008201527f7373000000000000000000000000000000000000000000000000000000000000602082015250565b6000611ce8602283611401565b9150611cf382611c8c565b604082019050919050565b60006020820190508181036000830152611d1781611cdb565b9050919050565b6000611d2982611514565b9150611d3483611514565b9250817fffffffffffffffffffffffffffffffffffffffffffffffffffffffffffffffff0483118215151615611d6d57611d6c6117e6565b5b828202905092915050565b7f45524332303a207472616e736665722066726f6d20746865207a65726f20616460008201527f6472657373000000000000000000000000000000000000000000000000000000602082015250565b6000611dd4602583611401565b9150611ddf82611d78565b604082019050919050565b60006020820190508181036000830152611e0381611dc7565b9050919050565b7f45524332303a207472616e7366657220746f20746865207a65726f206164647260008201527f6573730000000000000000000000000000000000000000000000000000000000602082015250565b6000611e66602383611401565b9150611e7182611e0a565b604082019050919050565b60006020820190508181036000830152611e9581611e59565b9050919050565b7f45524332303a207472616e7366657220616d6f756e742065786365656473206260008201527f616c616e63650000000000000000000000000000000000000000000000000000602082015250565b6000611ef8602683611401565b9150611f0382611e9c565b604082019050919050565b60006020820190508181036000830152611f2781611eeb565b9050919050565b6000611f3982611514565b9150611f4483611514565b925082821015611f5757611f566117e6565b5b828203905092915050565b7f4e487b7100000000000000000000000000000000000000000000000000000000600052601260045260246000fd5b6000611f9c82611514565b9150611fa783611514565b925082611fb757611fb6611f62565b5b82820490509291505056fea26469706673582212204bc8f1cd0cbe52977dcbc2dee35d8256e15c2898d5a4ff06d0ad62d67ee393b464736f6c634300080b0033",
  "immutableReferences": {},
  "source": "// SPDX-License-Identifier: MIT\npragma solidity ^0.8.11;\n\nimport \"@openzeppelin/contracts/access/Ownable.sol\";\nimport \"@openzeppelin/contracts/utils/math/SafeMath.sol\";\nimport \"./XYZToken.sol\";\n\ncontract Vesting is Ownable, XYZToken {\n    using SafeMath for uint256;\n\n    mapping(address => uint256) public shares;\n    address[] beneficiaries;\n    uint256 beneficiaryCount;\n    uint256 releaseTime;\n    uint256 public endTime;\n    uint256 releaseCount;\n\n    XYZToken public token;\n\n    uint256 releases;\n    uint256 releaseAmount;\n    uint256 tokensPerBeneficiaryPerMinute;\n\n    //uint256 public timeDiff;\n\n    constructor() {\n        // dispersed tokens per minute in total\n        // 365 days * 24 hours * 60 minutes\n        releases = 525600;\n        releaseAmount = 100000000 / releases;\n        tokensPerBeneficiaryPerMinute = releaseAmount / 10;\n\n        releaseTime = block.timestamp;\n        endTime = releaseTime + 365 days;\n    }\n\n    function addBeneficiaries(address _beneficiary) public onlyOwner {\n        require(\n            _beneficiary != address(0),\n            \"The address can't be a zero address\"\n        );\n        require(\n            beneficiaryCount < 10 && shares[_beneficiary] == 0,\n            \"There are already 10 beneficiaries.\"\n        );\n        // 10% share for each\n        shares[_beneficiary] = 10;\n        beneficiaries.push(_beneficiary);\n        beneficiaryCount.add(1);\n    }\n\n    function calcTimeDifference() public view returns (uint256) {\n        uint256 timeDifference = block.timestamp.sub(releaseTime);\n\n        return timeDifference.div(60);\n    }\n\n    function release(address _beneficiary) public payable virtual {\n        //require(beneficiaries.length == 10);\n        uint256 minutesSinceLastRelease = calcTimeDifference();\n\n        // in case the year is already over and the tokens haven't been transferred in time\n        if (minutesSinceLastRelease > releaseCount) {\n            minutesSinceLastRelease = releaseCount;\n        }\n\n        uint256 amountToTransfer = releaseAmount.mul(minutesSinceLastRelease);\n\n        /*require(minutesSinceLastRelease > 0);\n        // insure to transfer all tokens to the beneficiaries in case the function wasn't executed in prev minutes as it should have been\n        require(\n            balanceOf(address(this)) > amountToTransfer,\n            \"No tokens to release\"\n        );*/\n\n        transfer(payable(_beneficiary), releaseAmount);\n        releaseCount++;\n    }\n}\n",
  "sourcePath": "/Users/navinalang/token-vesting/contracts/Vesting.sol",
  "compiler": {
    "name": "solc",
    "version": "0.8.11+commit.d7f03943.Emscripten.clang"
  },
  "schemaVersion": "3.4.4",
  "updatedAt": "2022-02-05T23:29:23.127Z",
  "networkType": "ethereum",
  "devdoc": {
    "kind": "dev",
    "methods": {
      "allowance(address,address)": {
        "details": "See {IERC20-allowance}."
      },
      "approve(address,uint256)": {
        "details": "See {IERC20-approve}. Requirements: - `spender` cannot be the zero address."
      },
      "balanceOf(address)": {
        "details": "See {IERC20-balanceOf}."
      },
      "decimals()": {
        "details": "Returns the number of decimals used to get its user representation. For example, if `decimals` equals `2`, a balance of `505` tokens should be displayed to a user as `5.05` (`505 / 10 ** 2`). Tokens usually opt for a value of 18, imitating the relationship between Ether and Wei. This is the value {ERC20} uses, unless this function is overridden; NOTE: This information is only used for _display_ purposes: it in no way affects any of the arithmetic of the contract, including {IERC20-balanceOf} and {IERC20-transfer}."
      },
      "decreaseAllowance(address,uint256)": {
        "details": "Atomically decreases the allowance granted to `spender` by the caller. This is an alternative to {approve} that can be used as a mitigation for problems described in {IERC20-approve}. Emits an {Approval} event indicating the updated allowance. Requirements: - `spender` cannot be the zero address. - `spender` must have allowance for the caller of at least `subtractedValue`."
      },
      "increaseAllowance(address,uint256)": {
        "details": "Atomically increases the allowance granted to `spender` by the caller. This is an alternative to {approve} that can be used as a mitigation for problems described in {IERC20-approve}. Emits an {Approval} event indicating the updated allowance. Requirements: - `spender` cannot be the zero address."
      },
      "name()": {
        "details": "Returns the name of the token."
      },
      "owner()": {
        "details": "Returns the address of the current owner."
      },
      "renounceOwnership()": {
        "details": "Leaves the contract without owner. It will not be possible to call `onlyOwner` functions anymore. Can only be called by the current owner. NOTE: Renouncing ownership will leave the contract without an owner, thereby removing any functionality that is only available to the owner."
      },
      "symbol()": {
        "details": "Returns the symbol of the token, usually a shorter version of the name."
      },
      "totalSupply()": {
        "details": "See {IERC20-totalSupply}."
      },
      "transfer(address,uint256)": {
        "details": "See {IERC20-transfer}. Requirements: - `recipient` cannot be the zero address. - the caller must have a balance of at least `amount`."
      },
      "transferFrom(address,address,uint256)": {
        "details": "See {IERC20-transferFrom}. Emits an {Approval} event indicating the updated allowance. This is not required by the EIP. See the note at the beginning of {ERC20}. Requirements: - `sender` and `recipient` cannot be the zero address. - `sender` must have a balance of at least `amount`. - the caller must have allowance for ``sender``'s tokens of at least `amount`."
      },
      "transferOwnership(address)": {
        "details": "Transfers ownership of the contract to a new account (`newOwner`). Can only be called by the current owner."
      }
    },
    "version": 1
  },
  "userdoc": {
    "kind": "user",
    "methods": {},
    "version": 1
  }
}