{
  "contractName": "Vesting",
  "abi": [
    {
      "inputs": [],
      "stateMutability": "nonpayable",
      "type": "constructor"
    },
    {
      "anonymous": false,
      "inputs": [
        {
          "indexed": true,
          "internalType": "address",
          "name": "owner",
          "type": "address"
        },
        {
          "indexed": true,
          "internalType": "address",
          "name": "spender",
          "type": "address"
        },
        {
          "indexed": false,
          "internalType": "uint256",
          "name": "value",
          "type": "uint256"
        }
      ],
      "name": "Approval",
      "type": "event"
    },
    {
      "anonymous": false,
      "inputs": [
        {
          "indexed": true,
          "internalType": "address",
          "name": "previousOwner",
          "type": "address"
        },
        {
          "indexed": true,
          "internalType": "address",
          "name": "newOwner",
          "type": "address"
        }
      ],
      "name": "OwnershipTransferred",
      "type": "event"
    },
    {
      "anonymous": false,
      "inputs": [
        {
          "indexed": true,
          "internalType": "address",
          "name": "from",
          "type": "address"
        },
        {
          "indexed": true,
          "internalType": "address",
          "name": "to",
          "type": "address"
        },
        {
          "indexed": false,
          "internalType": "uint256",
          "name": "value",
          "type": "uint256"
        }
      ],
      "name": "Transfer",
      "type": "event"
    },
    {
      "inputs": [
        {
          "internalType": "address",
          "name": "owner",
          "type": "address"
        },
        {
          "internalType": "address",
          "name": "spender",
          "type": "address"
        }
      ],
      "name": "allowance",
      "outputs": [
        {
          "internalType": "uint256",
          "name": "",
          "type": "uint256"
        }
      ],
      "stateMutability": "view",
      "type": "function",
      "constant": true
    },
    {
      "inputs": [
        {
          "internalType": "address",
          "name": "spender",
          "type": "address"
        },
        {
          "internalType": "uint256",
          "name": "amount",
          "type": "uint256"
        }
      ],
      "name": "approve",
      "outputs": [
        {
          "internalType": "bool",
          "name": "",
          "type": "bool"
        }
      ],
      "stateMutability": "nonpayable",
      "type": "function"
    },
    {
      "inputs": [
        {
          "internalType": "address",
          "name": "account",
          "type": "address"
        }
      ],
      "name": "balanceOf",
      "outputs": [
        {
          "internalType": "uint256",
          "name": "",
          "type": "uint256"
        }
      ],
      "stateMutability": "view",
      "type": "function",
      "constant": true
    },
    {
      "inputs": [],
      "name": "decimals",
      "outputs": [
        {
          "internalType": "uint8",
          "name": "",
          "type": "uint8"
        }
      ],
      "stateMutability": "view",
      "type": "function",
      "constant": true
    },
    {
      "inputs": [
        {
          "internalType": "address",
          "name": "spender",
          "type": "address"
        },
        {
          "internalType": "uint256",
          "name": "subtractedValue",
          "type": "uint256"
        }
      ],
      "name": "decreaseAllowance",
      "outputs": [
        {
          "internalType": "bool",
          "name": "",
          "type": "bool"
        }
      ],
      "stateMutability": "nonpayable",
      "type": "function"
    },
    {
      "inputs": [
        {
          "internalType": "address",
          "name": "spender",
          "type": "address"
        },
        {
          "internalType": "uint256",
          "name": "addedValue",
          "type": "uint256"
        }
      ],
      "name": "increaseAllowance",
      "outputs": [
        {
          "internalType": "bool",
          "name": "",
          "type": "bool"
        }
      ],
      "stateMutability": "nonpayable",
      "type": "function"
    },
    {
      "inputs": [],
      "name": "name",
      "outputs": [
        {
          "internalType": "string",
          "name": "",
          "type": "string"
        }
      ],
      "stateMutability": "view",
      "type": "function",
      "constant": true
    },
    {
      "inputs": [],
      "name": "owner",
      "outputs": [
        {
          "internalType": "address",
          "name": "",
          "type": "address"
        }
      ],
      "stateMutability": "view",
      "type": "function",
      "constant": true
    },
    {
      "inputs": [],
      "name": "renounceOwnership",
      "outputs": [],
      "stateMutability": "nonpayable",
      "type": "function"
    },
    {
      "inputs": [],
      "name": "symbol",
      "outputs": [
        {
          "internalType": "string",
          "name": "",
          "type": "string"
        }
      ],
      "stateMutability": "view",
      "type": "function",
      "constant": true
    },
    {
      "inputs": [],
      "name": "token",
      "outputs": [
        {
          "internalType": "contract XYZToken",
          "name": "",
          "type": "address"
        }
      ],
      "stateMutability": "view",
      "type": "function",
      "constant": true
    },
    {
      "inputs": [],
      "name": "totalSupply",
      "outputs": [
        {
          "internalType": "uint256",
          "name": "",
          "type": "uint256"
        }
      ],
      "stateMutability": "view",
      "type": "function",
      "constant": true
    },
    {
      "inputs": [
        {
          "internalType": "address",
          "name": "recipient",
          "type": "address"
        },
        {
          "internalType": "uint256",
          "name": "amount",
          "type": "uint256"
        }
      ],
      "name": "transfer",
      "outputs": [
        {
          "internalType": "bool",
          "name": "",
          "type": "bool"
        }
      ],
      "stateMutability": "nonpayable",
      "type": "function"
    },
    {
      "inputs": [
        {
          "internalType": "address",
          "name": "sender",
          "type": "address"
        },
        {
          "internalType": "address",
          "name": "recipient",
          "type": "address"
        },
        {
          "internalType": "uint256",
          "name": "amount",
          "type": "uint256"
        }
      ],
      "name": "transferFrom",
      "outputs": [
        {
          "internalType": "bool",
          "name": "",
          "type": "bool"
        }
      ],
      "stateMutability": "nonpayable",
      "type": "function"
    },
    {
      "inputs": [
        {
          "internalType": "address",
          "name": "newOwner",
          "type": "address"
        }
      ],
      "name": "transferOwnership",
      "outputs": [],
      "stateMutability": "nonpayable",
      "type": "function"
    },
    {
      "inputs": [
        {
          "internalType": "address",
          "name": "_beneficiary",
          "type": "address"
        }
      ],
      "name": "addBeneficiaries",
      "outputs": [],
      "stateMutability": "nonpayable",
      "type": "function"
    },
    {
      "inputs": [],
      "name": "vest",
      "outputs": [],
      "stateMutability": "nonpayable",
      "type": "function"
    },
    {
      "inputs": [
        {
          "internalType": "address",
          "name": "_beneficiary",
          "type": "address"
        },
        {
          "internalType": "uint256",
          "name": "amount",
          "type": "uint256"
        }
      ],
      "name": "release",
      "outputs": [],
      "stateMutability": "payable",
      "type": "function",
      "payable": true
    }
  ],
  "bytecode": "0x60806040523480156200001157600080fd5b506040518060400160405280600881526020017f58595a546f6b656e0000000000000000000000000000000000000000000000008152506040518060400160405280600381526020017f58595a00000000000000000000000000000000000000000000000000000000008152506200009e620000926200018860201b60201c565b6200019060201b60201c565b8160049080519060200190620000b6929190620003eb565b508060059080519060200190620000cf929190620003eb565b5050506200011233620000e76200025460201b60201c565b600a620000f5919062000635565b6305f5e10062000106919062000686565b6200025d60201b60201c565b62080520600c81905550600c546200012f620003d760201b60201c565b6200013b919062000716565b600d81905550600a600d5462000152919062000716565b600e81905550426008819055506301e133806008546200017391906200074e565b600981905550600854600a81905550620008c1565b600033905090565b60008060009054906101000a900473ffffffffffffffffffffffffffffffffffffffff169050816000806101000a81548173ffffffffffffffffffffffffffffffffffffffff021916908373ffffffffffffffffffffffffffffffffffffffff1602179055508173ffffffffffffffffffffffffffffffffffffffff168173ffffffffffffffffffffffffffffffffffffffff167f8be0079c531659141344cd1fd0a4f28419497f9722a3daafe3b4186f6b6457e060405160405180910390a35050565b60006012905090565b600073ffffffffffffffffffffffffffffffffffffffff168273ffffffffffffffffffffffffffffffffffffffff161415620002d0576040517f08c379a0000000000000000000000000000000000000000000000000000000008152600401620002c7906200080c565b60405180910390fd5b620002e460008383620003e160201b60201c565b8060036000828254620002f891906200074e565b9250508190555080600160008473ffffffffffffffffffffffffffffffffffffffff1673ffffffffffffffffffffffffffffffffffffffff16815260200190815260200160002060008282546200035091906200074e565b925050819055508173ffffffffffffffffffffffffffffffffffffffff16600073ffffffffffffffffffffffffffffffffffffffff167fddf252ad1be2c89b69c2b068fc378daa952ba7f163c4a11628f55a4df523b3ef83604051620003b791906200083f565b60405180910390a3620003d360008383620003e660201b60201c565b5050565b6000600354905090565b505050565b505050565b828054620003f9906200088b565b90600052602060002090601f0160209004810192826200041d576000855562000469565b82601f106200043857805160ff191683800117855562000469565b8280016001018555821562000469579182015b82811115620004685782518255916020019190600101906200044b565b5b5090506200047891906200047c565b5090565b5b80821115620004975760008160009055506001016200047d565b5090565b7f4e487b7100000000000000000000000000000000000000000000000000000000600052601160045260246000fd5b60008160011c9050919050565b6000808291508390505b600185111562000529578086048111156200050157620005006200049b565b5b6001851615620005115780820291505b80810290506200052185620004ca565b9450620004e1565b94509492505050565b60008262000544576001905062000617565b8162000554576000905062000617565b81600181146200056d57600281146200057857620005ae565b600191505062000617565b60ff8411156200058d576200058c6200049b565b5b8360020a915084821115620005a757620005a66200049b565b5b5062000617565b5060208310610133831016604e8410600b8410161715620005e85782820a905083811115620005e257620005e16200049b565b5b62000617565b620005f78484846001620004d7565b925090508184048111156200061157620006106200049b565b5b81810290505b9392505050565b6000819050919050565b600060ff82169050919050565b600062000642826200061e565b91506200064f8362000628565b92506200067e7fffffffffffffffffffffffffffffffffffffffffffffffffffffffffffffffff848462000532565b905092915050565b600062000693826200061e565b9150620006a0836200061e565b9250817fffffffffffffffffffffffffffffffffffffffffffffffffffffffffffffffff0483118215151615620006dc57620006db6200049b565b5b828202905092915050565b7f4e487b7100000000000000000000000000000000000000000000000000000000600052601260045260246000fd5b600062000723826200061e565b915062000730836200061e565b925082620007435762000742620006e7565b5b828204905092915050565b60006200075b826200061e565b915062000768836200061e565b9250827fffffffffffffffffffffffffffffffffffffffffffffffffffffffffffffffff03821115620007a0576200079f6200049b565b5b828201905092915050565b600082825260208201905092915050565b7f45524332303a206d696e7420746f20746865207a65726f206164647265737300600082015250565b6000620007f4601f83620007ab565b91506200080182620007bc565b602082019050919050565b600060208201905081810360008301526200082781620007e5565b9050919050565b62000839816200061e565b82525050565b60006020820190506200085660008301846200082e565b92915050565b7f4e487b7100000000000000000000000000000000000000000000000000000000600052602260045260246000fd5b60006002820490506001821680620008a457607f821691505b60208210811415620008bb57620008ba6200085c565b5b50919050565b6120d580620008d16000396000f3fe6080604052600436106101095760003560e01c8063715018a611610095578063a457c2d711610064578063a457c2d71461034c578063a9059cbb14610389578063dd62ed3e146103c6578063f2fde38b14610403578063fc0c546a1461042c57610109565b8063715018a6146102b65780638da5cb5b146102cd5780639252d73b146102f857806395d89b411461032157610109565b806323b872dd116100dc57806323b872dd146101bd578063313ce567146101fa5780633950935114610225578063458efde31461026257806370a082311461027957610109565b80630357371d1461010e57806306fdde031461012a578063095ea7b31461015557806318160ddd14610192575b600080fd5b610128600480360381019061012391906114ab565b610457565b005b34801561013657600080fd5b5061013f61046d565b60405161014c9190611584565b60405180910390f35b34801561016157600080fd5b5061017c600480360381019061017791906114ab565b6104ff565b60405161018991906115c1565b60405180910390f35b34801561019e57600080fd5b506101a761051d565b6040516101b491906115eb565b60405180910390f35b3480156101c957600080fd5b506101e460048036038101906101df9190611606565b610527565b6040516101f191906115c1565b60405180910390f35b34801561020657600080fd5b5061020f61061f565b60405161021c9190611675565b60405180910390f35b34801561023157600080fd5b5061024c600480360381019061024791906114ab565b610628565b60405161025991906115c1565b60405180910390f35b34801561026e57600080fd5b506102776106d4565b005b34801561028557600080fd5b506102a0600480360381019061029b9190611690565b610828565b6040516102ad91906115eb565b60405180910390f35b3480156102c257600080fd5b506102cb610871565b005b3480156102d957600080fd5b506102e26108f9565b6040516102ef91906116cc565b60405180910390f35b34801561030457600080fd5b5061031f600480360381019061031a9190611690565b610922565b005b34801561032d57600080fd5b50610336610b6b565b6040516103439190611584565b60405180910390f35b34801561035857600080fd5b50610373600480360381019061036e91906114ab565b610bfd565b60405161038091906115c1565b60405180910390f35b34801561039557600080fd5b506103b060048036038101906103ab91906114ab565b610ce8565b6040516103bd91906115c1565b60405180910390f35b3480156103d257600080fd5b506103ed60048036038101906103e891906116e7565b610d06565b6040516103fa91906115eb565b60405180910390f35b34801561040f57600080fd5b5061042a60048036038101906104259190611690565b610d8d565b005b34801561043857600080fd5b50610441610e85565b60405161044e9190611786565b60405180910390f35b6104618282610ce8565b5042600a819055505050565b60606004805461047c906117d0565b80601f01602080910402602001604051908101604052809291908181526020018280546104a8906117d0565b80156104f55780601f106104ca576101008083540402835291602001916104f5565b820191906000526020600020905b8154815290600101906020018083116104d857829003601f168201915b5050505050905090565b600061051361050c610eab565b8484610eb3565b6001905092915050565b6000600354905090565b600061053484848461107e565b6000600260008673ffffffffffffffffffffffffffffffffffffffff1673ffffffffffffffffffffffffffffffffffffffff168152602001908152602001600020600061057f610eab565b73ffffffffffffffffffffffffffffffffffffffff1673ffffffffffffffffffffffffffffffffffffffff168152602001908152602001600020549050828110156105ff576040517f08c379a00000000000000000000000000000000000000000000000000000000081526004016105f690611874565b60405180910390fd5b6106138561060b610eab565b858403610eb3565b60019150509392505050565b60006012905090565b60006106ca610635610eab565b848460026000610643610eab565b73ffffffffffffffffffffffffffffffffffffffff1673ffffffffffffffffffffffffffffffffffffffff16815260200190815260200160002060008873ffffffffffffffffffffffffffffffffffffffff1673ffffffffffffffffffffffffffffffffffffffff168152602001908152602001600020546106c591906118c3565b610eb3565b6001905092915050565b6000806000600954600a54106106e957600080fd5b6009544211156107115761070a600a5460095461130290919063ffffffff16565b9250610729565b610726600a544261130290919063ffffffff16565b92505b603c83101561076d576040517f08c379a00000000000000000000000000000000000000000000000000000000081526004016107649061198b565b60405180910390fd5b610781603c8461131890919063ffffffff16565b9150610798600e548361132e90919063ffffffff16565b9050600954421115806107ae5750600954600a54105b6107b757600080fd5b60005b6006805490508110156108225761080f600682815481106107de576107dd6119ab565b5b9060005260206000200160009054906101000a900473ffffffffffffffffffffffffffffffffffffffff1683610457565b808061081a906119da565b9150506107ba565b50505050565b6000600160008373ffffffffffffffffffffffffffffffffffffffff1673ffffffffffffffffffffffffffffffffffffffff168152602001908152602001600020549050919050565b610879610eab565b73ffffffffffffffffffffffffffffffffffffffff166108976108f9565b73ffffffffffffffffffffffffffffffffffffffff16146108ed576040517f08c379a00000000000000000000000000000000000000000000000000000000081526004016108e490611a6f565b60405180910390fd5b6108f76000611344565b565b60008060009054906101000a900473ffffffffffffffffffffffffffffffffffffffff16905090565b61092a610eab565b73ffffffffffffffffffffffffffffffffffffffff166109486108f9565b73ffffffffffffffffffffffffffffffffffffffff161461099e576040517f08c379a000000000000000000000000000000000000000000000000000000000815260040161099590611a6f565b60405180910390fd5b600073ffffffffffffffffffffffffffffffffffffffff168173ffffffffffffffffffffffffffffffffffffffff161415610a0e576040517f08c379a0000000000000000000000000000000000000000000000000000000008152600401610a0590611b01565b60405180910390fd5b600a60068054905010610a56576040517f08c379a0000000000000000000000000000000000000000000000000000000008152600401610a4d90611b93565b60405180910390fd5b600760008273ffffffffffffffffffffffffffffffffffffffff1673ffffffffffffffffffffffffffffffffffffffff16815260200190815260200160002060009054906101000a900460ff1615610aad57600080fd5b6006819080600181540180825580915050600190039060005260206000200160009091909190916101000a81548173ffffffffffffffffffffffffffffffffffffffff021916908373ffffffffffffffffffffffffffffffffffffffff1602179055506001600760008373ffffffffffffffffffffffffffffffffffffffff1673ffffffffffffffffffffffffffffffffffffffff16815260200190815260200160002060006101000a81548160ff02191690831515021790555050565b606060058054610b7a906117d0565b80601f0160208091040260200160405190810160405280929190818152602001828054610ba6906117d0565b8015610bf35780601f10610bc857610100808354040283529160200191610bf3565b820191906000526020600020905b815481529060010190602001808311610bd657829003601f168201915b5050505050905090565b60008060026000610c0c610eab565b73ffffffffffffffffffffffffffffffffffffffff1673ffffffffffffffffffffffffffffffffffffffff16815260200190815260200160002060008573ffffffffffffffffffffffffffffffffffffffff1673ffffffffffffffffffffffffffffffffffffffff16815260200190815260200160002054905082811015610cc9576040517f08c379a0000000000000000000000000000000000000000000000000000000008152600401610cc090611c25565b60405180910390fd5b610cdd610cd4610eab565b85858403610eb3565b600191505092915050565b6000610cfc610cf5610eab565b848461107e565b6001905092915050565b6000600260008473ffffffffffffffffffffffffffffffffffffffff1673ffffffffffffffffffffffffffffffffffffffff16815260200190815260200160002060008373ffffffffffffffffffffffffffffffffffffffff1673ffffffffffffffffffffffffffffffffffffffff16815260200190815260200160002054905092915050565b610d95610eab565b73ffffffffffffffffffffffffffffffffffffffff16610db36108f9565b73ffffffffffffffffffffffffffffffffffffffff1614610e09576040517f08c379a0000000000000000000000000000000000000000000000000000000008152600401610e0090611a6f565b60405180910390fd5b600073ffffffffffffffffffffffffffffffffffffffff168173ffffffffffffffffffffffffffffffffffffffff161415610e79576040517f08c379a0000000000000000000000000000000000000000000000000000000008152600401610e7090611cb7565b60405180910390fd5b610e8281611344565b50565b600b60009054906101000a900473ffffffffffffffffffffffffffffffffffffffff1681565b600033905090565b600073ffffffffffffffffffffffffffffffffffffffff168373ffffffffffffffffffffffffffffffffffffffff161415610f23576040517f08c379a0000000000000000000000000000000000000000000000000000000008152600401610f1a90611d49565b60405180910390fd5b600073ffffffffffffffffffffffffffffffffffffffff168273ffffffffffffffffffffffffffffffffffffffff161415610f93576040517f08c379a0000000000000000000000000000000000000000000000000000000008152600401610f8a90611ddb565b60405180910390fd5b80600260008573ffffffffffffffffffffffffffffffffffffffff1673ffffffffffffffffffffffffffffffffffffffff16815260200190815260200160002060008473ffffffffffffffffffffffffffffffffffffffff1673ffffffffffffffffffffffffffffffffffffffff168152602001908152602001600020819055508173ffffffffffffffffffffffffffffffffffffffff168373ffffffffffffffffffffffffffffffffffffffff167f8c5be1e5ebec7d5bd14f71427d1e84f3dd0314c0f7b2291e5b200ac8c7c3b9258360405161107191906115eb565b60405180910390a3505050565b600073ffffffffffffffffffffffffffffffffffffffff168373ffffffffffffffffffffffffffffffffffffffff1614156110ee576040517f08c379a00000000000000000000000000000000000000000000000000000000081526004016110e590611e6d565b60405180910390fd5b600073ffffffffffffffffffffffffffffffffffffffff168273ffffffffffffffffffffffffffffffffffffffff16141561115e576040517f08c379a000000000000000000000000000000000000000000000000000000000815260040161115590611eff565b60405180910390fd5b611169838383611408565b6000600160008573ffffffffffffffffffffffffffffffffffffffff1673ffffffffffffffffffffffffffffffffffffffff168152602001908152602001600020549050818110156111f0576040517f08c379a00000000000000000000000000000000000000000000000000000000081526004016111e790611f91565b60405180910390fd5b818103600160008673ffffffffffffffffffffffffffffffffffffffff1673ffffffffffffffffffffffffffffffffffffffff1681526020019081526020016000208190555081600160008573ffffffffffffffffffffffffffffffffffffffff1673ffffffffffffffffffffffffffffffffffffffff168152602001908152602001600020600082825461128591906118c3565b925050819055508273ffffffffffffffffffffffffffffffffffffffff168473ffffffffffffffffffffffffffffffffffffffff167fddf252ad1be2c89b69c2b068fc378daa952ba7f163c4a11628f55a4df523b3ef846040516112e991906115eb565b60405180910390a36112fc84848461140d565b50505050565b600081836113109190611fb1565b905092915050565b600081836113269190612014565b905092915050565b6000818361133c9190612045565b905092915050565b60008060009054906101000a900473ffffffffffffffffffffffffffffffffffffffff169050816000806101000a81548173ffffffffffffffffffffffffffffffffffffffff021916908373ffffffffffffffffffffffffffffffffffffffff1602179055508173ffffffffffffffffffffffffffffffffffffffff168173ffffffffffffffffffffffffffffffffffffffff167f8be0079c531659141344cd1fd0a4f28419497f9722a3daafe3b4186f6b6457e060405160405180910390a35050565b505050565b505050565b600080fd5b600073ffffffffffffffffffffffffffffffffffffffff82169050919050565b600061144282611417565b9050919050565b61145281611437565b811461145d57600080fd5b50565b60008135905061146f81611449565b92915050565b6000819050919050565b61148881611475565b811461149357600080fd5b50565b6000813590506114a58161147f565b92915050565b600080604083850312156114c2576114c1611412565b5b60006114d085828601611460565b92505060206114e185828601611496565b9150509250929050565b600081519050919050565b600082825260208201905092915050565b60005b8381101561152557808201518184015260208101905061150a565b83811115611534576000848401525b50505050565b6000601f19601f8301169050919050565b6000611556826114eb565b61156081856114f6565b9350611570818560208601611507565b6115798161153a565b840191505092915050565b6000602082019050818103600083015261159e818461154b565b905092915050565b60008115159050919050565b6115bb816115a6565b82525050565b60006020820190506115d660008301846115b2565b92915050565b6115e581611475565b82525050565b600060208201905061160060008301846115dc565b92915050565b60008060006060848603121561161f5761161e611412565b5b600061162d86828701611460565b935050602061163e86828701611460565b925050604061164f86828701611496565b9150509250925092565b600060ff82169050919050565b61166f81611659565b82525050565b600060208201905061168a6000830184611666565b92915050565b6000602082840312156116a6576116a5611412565b5b60006116b484828501611460565b91505092915050565b6116c681611437565b82525050565b60006020820190506116e160008301846116bd565b92915050565b600080604083850312156116fe576116fd611412565b5b600061170c85828601611460565b925050602061171d85828601611460565b9150509250929050565b6000819050919050565b600061174c61174761174284611417565b611727565b611417565b9050919050565b600061175e82611731565b9050919050565b600061177082611753565b9050919050565b61178081611765565b82525050565b600060208201905061179b6000830184611777565b92915050565b7f4e487b7100000000000000000000000000000000000000000000000000000000600052602260045260246000fd5b600060028204905060018216806117e857607f821691505b602082108114156117fc576117fb6117a1565b5b50919050565b7f45524332303a207472616e7366657220616d6f756e742065786365656473206160008201527f6c6c6f77616e6365000000000000000000000000000000000000000000000000602082015250565b600061185e6028836114f6565b915061186982611802565b604082019050919050565b6000602082019050818103600083015261188d81611851565b9050919050565b7f4e487b7100000000000000000000000000000000000000000000000000000000600052601160045260246000fd5b60006118ce82611475565b91506118d983611475565b9250827fffffffffffffffffffffffffffffffffffffffffffffffffffffffffffffffff0382111561190e5761190d611894565b5b828201905092915050565b7f546865206c6173742072656c6561736520776173206c657373207468616e206f60008201527f6e65206d696e7574652061676f2e000000000000000000000000000000000000602082015250565b6000611975602e836114f6565b915061198082611919565b604082019050919050565b600060208201905081810360008301526119a481611968565b9050919050565b7f4e487b7100000000000000000000000000000000000000000000000000000000600052603260045260246000fd5b60006119e582611475565b91507fffffffffffffffffffffffffffffffffffffffffffffffffffffffffffffffff821415611a1857611a17611894565b5b600182019050919050565b7f4f776e61626c653a2063616c6c6572206973206e6f7420746865206f776e6572600082015250565b6000611a596020836114f6565b9150611a6482611a23565b602082019050919050565b60006020820190508181036000830152611a8881611a4c565b9050919050565b7f54686520616464726573732063616e27742062652061207a65726f206164647260008201527f6573730000000000000000000000000000000000000000000000000000000000602082015250565b6000611aeb6023836114f6565b9150611af682611a8f565b604082019050919050565b60006020820190508181036000830152611b1a81611ade565b9050919050565b7f54686572652061726520616c72656164792031302062656e656669636961726960008201527f65732e0000000000000000000000000000000000000000000000000000000000602082015250565b6000611b7d6023836114f6565b9150611b8882611b21565b604082019050919050565b60006020820190508181036000830152611bac81611b70565b9050919050565b7f45524332303a2064656372656173656420616c6c6f77616e63652062656c6f7760008201527f207a65726f000000000000000000000000000000000000000000000000000000602082015250565b6000611c0f6025836114f6565b9150611c1a82611bb3565b604082019050919050565b60006020820190508181036000830152611c3e81611c02565b9050919050565b7f4f776e61626c653a206e6577206f776e657220697320746865207a65726f206160008201527f6464726573730000000000000000000000000000000000000000000000000000602082015250565b6000611ca16026836114f6565b9150611cac82611c45565b604082019050919050565b60006020820190508181036000830152611cd081611c94565b9050919050565b7f45524332303a20617070726f76652066726f6d20746865207a65726f2061646460008201527f7265737300000000000000000000000000000000000000000000000000000000602082015250565b6000611d336024836114f6565b9150611d3e82611cd7565b604082019050919050565b60006020820190508181036000830152611d6281611d26565b9050919050565b7f45524332303a20617070726f766520746f20746865207a65726f20616464726560008201527f7373000000000000000000000000000000000000000000000000000000000000602082015250565b6000611dc56022836114f6565b9150611dd082611d69565b604082019050919050565b60006020820190508181036000830152611df481611db8565b9050919050565b7f45524332303a207472616e736665722066726f6d20746865207a65726f20616460008201527f6472657373000000000000000000000000000000000000000000000000000000602082015250565b6000611e576025836114f6565b9150611e6282611dfb565b604082019050919050565b60006020820190508181036000830152611e8681611e4a565b9050919050565b7f45524332303a207472616e7366657220746f20746865207a65726f206164647260008201527f6573730000000000000000000000000000000000000000000000000000000000602082015250565b6000611ee96023836114f6565b9150611ef482611e8d565b604082019050919050565b60006020820190508181036000830152611f1881611edc565b9050919050565b7f45524332303a207472616e7366657220616d6f756e742065786365656473206260008201527f616c616e63650000000000000000000000000000000000000000000000000000602082015250565b6000611f7b6026836114f6565b9150611f8682611f1f565b604082019050919050565b60006020820190508181036000830152611faa81611f6e565b9050919050565b6000611fbc82611475565b9150611fc783611475565b925082821015611fda57611fd9611894565b5b828203905092915050565b7f4e487b7100000000000000000000000000000000000000000000000000000000600052601260045260246000fd5b600061201f82611475565b915061202a83611475565b92508261203a57612039611fe5565b5b828204905092915050565b600061205082611475565b915061205b83611475565b9250817fffffffffffffffffffffffffffffffffffffffffffffffffffffffffffffffff048311821515161561209457612093611894565b5b82820290509291505056fea2646970667358221220d50ccd321846bf3c607e868be2d3725af9bb5e71141f698c476e9a2483cf0e6664736f6c634300080b0033",
  "immutableReferences": {},
  "source": "// SPDX-License-Identifier: MIT\npragma solidity ^0.8.11;\n\nimport \"@openzeppelin/contracts/access/Ownable.sol\";\nimport \"@openzeppelin/contracts/utils/math/SafeMath.sol\";\nimport \"./XYZToken.sol\";\n\ncontract Vesting is Ownable, XYZToken {\n    using SafeMath for uint256;\n\n    address[] beneficiaries;\n    // mapping to check whether the beneficary already exists (cheaper than a loop for the array)\n    mapping(address => bool) isBeneficiary;\n\n    uint256 startTime;\n    uint256 endTime;\n    uint256 lastRelease;\n\n    XYZToken public token;\n\n    uint256 releases;\n    uint256 releaseAmount;\n    uint256 tokensPerBeneficiaryPerMinute;\n\n    constructor() {\n        // dispersed tokens per minute in total\n        // 365 days * 24 hours * 60 minutes\n        releases = 525600;\n        releaseAmount = totalSupply() / releases;\n        tokensPerBeneficiaryPerMinute = releaseAmount / 10;\n\n        startTime = block.timestamp;\n        endTime = startTime + 365 days;\n        lastRelease = startTime;\n    }\n\n    function addBeneficiaries(address _beneficiary) public onlyOwner {\n        require(\n            _beneficiary != address(0),\n            \"The address can't be a zero address\"\n        );\n        require(\n            beneficiaries.length < 10,\n            \"There are already 10 beneficiaries.\"\n        );\n        require(!isBeneficiary[_beneficiary]);\n        // 10% share for each\n        beneficiaries.push(_beneficiary);\n        isBeneficiary[_beneficiary] = true;\n    }\n\n    function vest() public {\n        uint256 timeDifference;\n        uint256 minutesSinceLastRelease;\n        uint256 amount;\n\n        require(lastRelease < endTime);\n        // in case the year is already over and the tokens haven't been transferred in time\n        if (block.timestamp > endTime) {\n            timeDifference = endTime.sub(lastRelease);\n        } else {\n            timeDifference = block.timestamp.sub(lastRelease);\n        }\n        require(\n            timeDifference >= 60,\n            \"The last release was less than one minute ago.\"\n        );\n\n        minutesSinceLastRelease = timeDifference.div(60);\n        amount = minutesSinceLastRelease.mul(tokensPerBeneficiaryPerMinute);\n\n        require(block.timestamp <= endTime || lastRelease < endTime);\n\n        for (uint256 i = 0; i < beneficiaries.length; i++) {\n            release(beneficiaries[i], amount);\n        }\n    }\n\n    function release(address _beneficiary, uint256 amount)\n        public\n        payable\n        virtual\n    {\n        transfer(payable(_beneficiary), amount);\n        lastRelease = block.timestamp;\n    }\n}\n",
  "sourcePath": "/Users/navinalang/token-vesting/contracts/Vesting.sol",
  "compiler": {
    "name": "solc",
    "version": "0.8.11+commit.d7f03943.Emscripten.clang"
  },
  "schemaVersion": "3.4.4",
  "updatedAt": "2022-02-06T04:39:20.216Z",
  "networkType": "ethereum",
  "devdoc": {
    "kind": "dev",
    "methods": {
      "allowance(address,address)": {
        "details": "See {IERC20-allowance}."
      },
      "approve(address,uint256)": {
        "details": "See {IERC20-approve}. Requirements: - `spender` cannot be the zero address."
      },
      "balanceOf(address)": {
        "details": "See {IERC20-balanceOf}."
      },
      "decimals()": {
        "details": "Returns the number of decimals used to get its user representation. For example, if `decimals` equals `2`, a balance of `505` tokens should be displayed to a user as `5.05` (`505 / 10 ** 2`). Tokens usually opt for a value of 18, imitating the relationship between Ether and Wei. This is the value {ERC20} uses, unless this function is overridden; NOTE: This information is only used for _display_ purposes: it in no way affects any of the arithmetic of the contract, including {IERC20-balanceOf} and {IERC20-transfer}."
      },
      "decreaseAllowance(address,uint256)": {
        "details": "Atomically decreases the allowance granted to `spender` by the caller. This is an alternative to {approve} that can be used as a mitigation for problems described in {IERC20-approve}. Emits an {Approval} event indicating the updated allowance. Requirements: - `spender` cannot be the zero address. - `spender` must have allowance for the caller of at least `subtractedValue`."
      },
      "increaseAllowance(address,uint256)": {
        "details": "Atomically increases the allowance granted to `spender` by the caller. This is an alternative to {approve} that can be used as a mitigation for problems described in {IERC20-approve}. Emits an {Approval} event indicating the updated allowance. Requirements: - `spender` cannot be the zero address."
      },
      "name()": {
        "details": "Returns the name of the token."
      },
      "owner()": {
        "details": "Returns the address of the current owner."
      },
      "renounceOwnership()": {
        "details": "Leaves the contract without owner. It will not be possible to call `onlyOwner` functions anymore. Can only be called by the current owner. NOTE: Renouncing ownership will leave the contract without an owner, thereby removing any functionality that is only available to the owner."
      },
      "symbol()": {
        "details": "Returns the symbol of the token, usually a shorter version of the name."
      },
      "totalSupply()": {
        "details": "See {IERC20-totalSupply}."
      },
      "transfer(address,uint256)": {
        "details": "See {IERC20-transfer}. Requirements: - `recipient` cannot be the zero address. - the caller must have a balance of at least `amount`."
      },
      "transferFrom(address,address,uint256)": {
        "details": "See {IERC20-transferFrom}. Emits an {Approval} event indicating the updated allowance. This is not required by the EIP. See the note at the beginning of {ERC20}. Requirements: - `sender` and `recipient` cannot be the zero address. - `sender` must have a balance of at least `amount`. - the caller must have allowance for ``sender``'s tokens of at least `amount`."
      },
      "transferOwnership(address)": {
        "details": "Transfers ownership of the contract to a new account (`newOwner`). Can only be called by the current owner."
      }
    },
    "version": 1
  },
  "userdoc": {
    "kind": "user",
    "methods": {},
    "version": 1
  }
}